{
  "_format": "hh-sol-artifact-1",
  "contractName": "BodyNFT",
  "sourceName": "contracts/Body.sol",
  "abi": [
    {
      "inputs": [],
      "stateMutability": "nonpayable",
      "type": "constructor"
    },
    {
      "anonymous": false,
      "inputs": [
        {
          "indexed": true,
          "internalType": "address",
          "name": "owner",
          "type": "address"
        },
        {
          "indexed": true,
          "internalType": "address",
          "name": "approved",
          "type": "address"
        },
        {
          "indexed": true,
          "internalType": "uint256",
          "name": "tokenId",
          "type": "uint256"
        }
      ],
      "name": "Approval",
      "type": "event"
    },
    {
      "anonymous": false,
      "inputs": [
        {
          "indexed": true,
          "internalType": "address",
          "name": "owner",
          "type": "address"
        },
        {
          "indexed": true,
          "internalType": "address",
          "name": "operator",
          "type": "address"
        },
        {
          "indexed": false,
          "internalType": "bool",
          "name": "approved",
          "type": "bool"
        }
      ],
      "name": "ApprovalForAll",
      "type": "event"
    },
    {
      "anonymous": false,
      "inputs": [
        {
          "indexed": true,
          "internalType": "address",
          "name": "previousOwner",
          "type": "address"
        },
        {
          "indexed": true,
          "internalType": "address",
          "name": "newOwner",
          "type": "address"
        }
      ],
      "name": "OwnershipTransferred",
      "type": "event"
    },
    {
      "anonymous": false,
      "inputs": [
        {
          "indexed": true,
          "internalType": "address",
          "name": "from",
          "type": "address"
        },
        {
          "indexed": true,
          "internalType": "address",
          "name": "to",
          "type": "address"
        },
        {
          "indexed": true,
          "internalType": "uint256",
          "name": "tokenId",
          "type": "uint256"
        }
      ],
      "name": "Transfer",
      "type": "event"
    },
    {
      "inputs": [
        {
          "internalType": "address",
          "name": "to",
          "type": "address"
        },
        {
          "internalType": "uint256",
          "name": "tokenId",
          "type": "uint256"
        }
      ],
      "name": "approve",
      "outputs": [],
      "stateMutability": "nonpayable",
      "type": "function"
    },
    {
      "inputs": [
        {
          "internalType": "address",
          "name": "player",
          "type": "address"
        },
        {
          "internalType": "string",
          "name": "tokenURI",
          "type": "string"
        }
      ],
      "name": "awardToken",
      "outputs": [
        {
          "internalType": "uint256",
          "name": "",
          "type": "uint256"
        }
      ],
      "stateMutability": "nonpayable",
      "type": "function"
    },
    {
      "inputs": [
        {
          "internalType": "address",
          "name": "owner",
          "type": "address"
        }
      ],
      "name": "balanceOf",
      "outputs": [
        {
          "internalType": "uint256",
          "name": "",
          "type": "uint256"
        }
      ],
      "stateMutability": "view",
      "type": "function"
    },
    {
      "inputs": [
        {
          "internalType": "uint256",
          "name": "tokenId",
          "type": "uint256"
        }
      ],
      "name": "getApproved",
      "outputs": [
        {
          "internalType": "address",
          "name": "",
          "type": "address"
        }
      ],
      "stateMutability": "view",
      "type": "function"
    },
    {
      "inputs": [
        {
          "internalType": "address",
          "name": "owner",
          "type": "address"
        },
        {
          "internalType": "address",
          "name": "operator",
          "type": "address"
        }
      ],
      "name": "isApprovedForAll",
      "outputs": [
        {
          "internalType": "bool",
          "name": "",
          "type": "bool"
        }
      ],
      "stateMutability": "view",
      "type": "function"
    },
    {
      "inputs": [],
      "name": "name",
      "outputs": [
        {
          "internalType": "string",
          "name": "",
          "type": "string"
        }
      ],
      "stateMutability": "view",
      "type": "function"
    },
    {
      "inputs": [],
      "name": "owner",
      "outputs": [
        {
          "internalType": "address",
          "name": "",
          "type": "address"
        }
      ],
      "stateMutability": "view",
      "type": "function"
    },
    {
      "inputs": [
        {
          "internalType": "uint256",
          "name": "tokenId",
          "type": "uint256"
        }
      ],
      "name": "ownerOf",
      "outputs": [
        {
          "internalType": "address",
          "name": "",
          "type": "address"
        }
      ],
      "stateMutability": "view",
      "type": "function"
    },
    {
      "inputs": [],
      "name": "renounceOwnership",
      "outputs": [],
      "stateMutability": "nonpayable",
      "type": "function"
    },
    {
      "inputs": [
        {
          "internalType": "address",
          "name": "from",
          "type": "address"
        },
        {
          "internalType": "address",
          "name": "to",
          "type": "address"
        },
        {
          "internalType": "uint256",
          "name": "tokenId",
          "type": "uint256"
        }
      ],
      "name": "safeTransferFrom",
      "outputs": [],
      "stateMutability": "nonpayable",
      "type": "function"
    },
    {
      "inputs": [
        {
          "internalType": "address",
          "name": "from",
          "type": "address"
        },
        {
          "internalType": "address",
          "name": "to",
          "type": "address"
        },
        {
          "internalType": "uint256",
          "name": "tokenId",
          "type": "uint256"
        },
        {
          "internalType": "bytes",
          "name": "_data",
          "type": "bytes"
        }
      ],
      "name": "safeTransferFrom",
      "outputs": [],
      "stateMutability": "nonpayable",
      "type": "function"
    },
    {
      "inputs": [
        {
          "internalType": "address",
          "name": "operator",
          "type": "address"
        },
        {
          "internalType": "bool",
          "name": "approved",
          "type": "bool"
        }
      ],
      "name": "setApprovalForAll",
      "outputs": [],
      "stateMutability": "nonpayable",
      "type": "function"
    },
    {
      "inputs": [
        {
          "internalType": "bytes4",
          "name": "interfaceId",
          "type": "bytes4"
        }
      ],
      "name": "supportsInterface",
      "outputs": [
        {
          "internalType": "bool",
          "name": "",
          "type": "bool"
        }
      ],
      "stateMutability": "view",
      "type": "function"
    },
    {
      "inputs": [],
      "name": "symbol",
      "outputs": [
        {
          "internalType": "string",
          "name": "",
          "type": "string"
        }
      ],
      "stateMutability": "view",
      "type": "function"
    },
    {
      "inputs": [
        {
          "internalType": "address",
          "name": "_owner",
          "type": "address"
        },
        {
          "internalType": "uint256",
          "name": "_idx",
          "type": "uint256"
        }
      ],
      "name": "tokenOfOwnerByIndex",
      "outputs": [
        {
          "internalType": "uint256",
          "name": "",
          "type": "uint256"
        }
      ],
      "stateMutability": "view",
      "type": "function"
    },
    {
      "inputs": [
        {
          "internalType": "uint256",
          "name": "tokenId",
          "type": "uint256"
        }
      ],
      "name": "tokenURI",
      "outputs": [
        {
          "internalType": "string",
          "name": "",
          "type": "string"
        }
      ],
      "stateMutability": "view",
      "type": "function"
    },
    {
      "inputs": [
        {
          "internalType": "address",
          "name": "_owner",
          "type": "address"
        }
      ],
      "name": "tokensOfOwner",
      "outputs": [
        {
          "internalType": "uint256[]",
          "name": "ownerTokens",
          "type": "uint256[]"
        }
      ],
      "stateMutability": "view",
      "type": "function"
    },
    {
      "inputs": [],
      "name": "totalSupply",
      "outputs": [
        {
          "internalType": "uint256",
          "name": "",
          "type": "uint256"
        }
      ],
      "stateMutability": "view",
      "type": "function"
    },
    {
      "inputs": [
        {
          "internalType": "address",
          "name": "from",
          "type": "address"
        },
        {
          "internalType": "address",
          "name": "to",
          "type": "address"
        },
        {
          "internalType": "uint256",
          "name": "tokenId",
          "type": "uint256"
        }
      ],
      "name": "transferFrom",
      "outputs": [],
      "stateMutability": "nonpayable",
      "type": "function"
    },
    {
      "inputs": [
        {
          "internalType": "address",
          "name": "newOwner",
          "type": "address"
        }
      ],
      "name": "transferOwnership",
      "outputs": [],
      "stateMutability": "nonpayable",
      "type": "function"
    }
  ],
  "bytecode": "0x60806040523480156200001157600080fd5b506040518060400160405280600781526020017f426f64794e4654000000000000000000000000000000000000000000000000008152506040518060400160405280600481526020017f424f445900000000000000000000000000000000000000000000000000000000815250816000908051906020019062000096929190620001a6565b508060019080519060200190620000af929190620001a6565b505050620000d2620000c6620000d860201b60201c565b620000e060201b60201c565b620002bb565b600033905090565b6000600760009054906101000a900473ffffffffffffffffffffffffffffffffffffffff16905081600760006101000a81548173ffffffffffffffffffffffffffffffffffffffff021916908373ffffffffffffffffffffffffffffffffffffffff1602179055508173ffffffffffffffffffffffffffffffffffffffff168173ffffffffffffffffffffffffffffffffffffffff167f8be0079c531659141344cd1fd0a4f28419497f9722a3daafe3b4186f6b6457e060405160405180910390a35050565b828054620001b49062000256565b90600052602060002090601f016020900481019282620001d8576000855562000224565b82601f10620001f357805160ff191683800117855562000224565b8280016001018555821562000224579182015b828111156200022357825182559160200191906001019062000206565b5b50905062000233919062000237565b5090565b5b808211156200025257600081600090555060010162000238565b5090565b600060028204905060018216806200026f57607f821691505b602082108114156200028657620002856200028c565b5b50919050565b7f4e487b7100000000000000000000000000000000000000000000000000000000600052602260045260246000fd5b61332480620002cb6000396000f3fe608060405234801561001057600080fd5b506004361061012c5760003560e01c806370a08231116100ad578063a22cb46511610071578063a22cb46514610357578063b88d4fde14610373578063c87b56dd1461038f578063e985e9c5146103bf578063f2fde38b146103ef5761012c565b806370a08231146102b1578063715018a6146102e15780638462151c146102eb5780638da5cb5b1461031b57806395d89b41146103395761012c565b806323b872dd116100f457806323b872dd146101e95780632f745c591461020557806342842e0e1461023557806362068d60146102515780636352211e146102815761012c565b806301ffc9a71461013157806306fdde0314610161578063081812fc1461017f578063095ea7b3146101af57806318160ddd146101cb575b600080fd5b61014b600480360381019061014691906121f3565b61040b565b60405161015891906126e6565b60405180910390f35b6101696104ed565b6040516101769190612701565b60405180910390f35b61019960048036038101906101949190612245565b61057f565b6040516101a6919061265d565b60405180910390f35b6101c960048036038101906101c491906121b7565b610604565b005b6101d361071c565b6040516101e09190612963565b60405180910390f35b61020360048036038101906101fe919061205d565b61072d565b005b61021f600480360381019061021a91906121b7565b61078d565b60405161022c9190612963565b60405180910390f35b61024f600480360381019061024a919061205d565b610795565b005b61026b60048036038101906102669190612163565b6107b5565b6040516102789190612963565b60405180910390f35b61029b60048036038101906102969190612245565b61083f565b6040516102a8919061265d565b60405180910390f35b6102cb60048036038101906102c69190611ff8565b6108f1565b6040516102d89190612963565b60405180910390f35b6102e96109a9565b005b61030560048036038101906103009190611ff8565b610a31565b60405161031291906126c4565b60405180910390f35b610323610c2c565b604051610330919061265d565b60405180910390f35b610341610c56565b60405161034e9190612701565b60405180910390f35b610371600480360381019061036c9190612127565b610ce8565b005b61038d600480360381019061038891906120ac565b610e69565b005b6103a960048036038101906103a49190612245565b610ecb565b6040516103b69190612701565b60405180910390f35b6103d960048036038101906103d49190612021565b61101d565b6040516103e691906126e6565b60405180910390f35b61040960048036038101906104049190611ff8565b6110b1565b005b60007f80ac58cd000000000000000000000000000000000000000000000000000000007bffffffffffffffffffffffffffffffffffffffffffffffffffffffff1916827bffffffffffffffffffffffffffffffffffffffffffffffffffffffff191614806104d657507f5b5e139f000000000000000000000000000000000000000000000000000000007bffffffffffffffffffffffffffffffffffffffffffffffffffffffff1916827bffffffffffffffffffffffffffffffffffffffffffffffffffffffff1916145b806104e657506104e5826111a9565b5b9050919050565b6060600080546104fc90612bf2565b80601f016020809104026020016040519081016040528092919081815260200182805461052890612bf2565b80156105755780601f1061054a57610100808354040283529160200191610575565b820191906000526020600020905b81548152906001019060200180831161055857829003601f168201915b5050505050905090565b600061058a82611213565b6105c9576040517f08c379a00000000000000000000000000000000000000000000000000000000081526004016105c0906128a3565b60405180910390fd5b6004600083815260200190815260200160002060009054906101000a900473ffffffffffffffffffffffffffffffffffffffff169050919050565b600061060f8261083f565b90508073ffffffffffffffffffffffffffffffffffffffff168373ffffffffffffffffffffffffffffffffffffffff161415610680576040517f08c379a000000000000000000000000000000000000000000000000000000000815260040161067790612923565b60405180910390fd5b8073ffffffffffffffffffffffffffffffffffffffff1661069f61127f565b73ffffffffffffffffffffffffffffffffffffffff1614806106ce57506106cd816106c861127f565b61101d565b5b61070d576040517f08c379a0000000000000000000000000000000000000000000000000000000008152600401610704906127e3565b60405180910390fd5b6107178383611287565b505050565b60006107286008611340565b905090565b61073e61073861127f565b8261134e565b61077d576040517f08c379a000000000000000000000000000000000000000000000000000000000815260040161077490612943565b60405180910390fd5b61078883838361142c565b505050565b600092915050565b6107b083838360405180602001604052806000815250610e69565b505050565b60006107c16008611688565b60006107cd6008611340565b90506107d9848261169e565b6107e3818461186c565b836009600083815260200190815260200160002060006101000a81548173ffffffffffffffffffffffffffffffffffffffff021916908373ffffffffffffffffffffffffffffffffffffffff1602179055508091505092915050565b6000806002600084815260200190815260200160002060009054906101000a900473ffffffffffffffffffffffffffffffffffffffff169050600073ffffffffffffffffffffffffffffffffffffffff168173ffffffffffffffffffffffffffffffffffffffff1614156108e8576040517f08c379a00000000000000000000000000000000000000000000000000000000081526004016108df90612823565b60405180910390fd5b80915050919050565b60008073ffffffffffffffffffffffffffffffffffffffff168273ffffffffffffffffffffffffffffffffffffffff161415610962576040517f08c379a000000000000000000000000000000000000000000000000000000000815260040161095990612803565b60405180910390fd5b600360008373ffffffffffffffffffffffffffffffffffffffff1673ffffffffffffffffffffffffffffffffffffffff168152602001908152602001600020549050919050565b6109b161127f565b73ffffffffffffffffffffffffffffffffffffffff166109cf610c2c565b73ffffffffffffffffffffffffffffffffffffffff1614610a25576040517f08c379a0000000000000000000000000000000000000000000000000000000008152600401610a1c906128c3565b60405180910390fd5b610a2f60006118e0565b565b60606000610a3e836108f1565b90506000811415610ac157600067ffffffffffffffff811115610a8a577f4e487b7100000000000000000000000000000000000000000000000000000000600052604160045260246000fd5b604051908082528060200260200182016040528015610ab85781602001602082028036833780820191505090505b50915050610c27565b60008167ffffffffffffffff811115610b03577f4e487b7100000000000000000000000000000000000000000000000000000000600052604160045260246000fd5b604051908082528060200260200182016040528015610b315781602001602082028036833780820191505090505b5090506000610b3e61071c565b9050600080600190505b828111610c1e578673ffffffffffffffffffffffffffffffffffffffff166009600083815260200190815260200160002060009054906101000a900473ffffffffffffffffffffffffffffffffffffffff1673ffffffffffffffffffffffffffffffffffffffff161415610c0b5780848381518110610bf0577f4e487b7100000000000000000000000000000000000000000000000000000000600052603260045260246000fd5b6020026020010181815250508180610c0790612c55565b9250505b8080610c1690612c55565b915050610b48565b83955050505050505b919050565b6000600760009054906101000a900473ffffffffffffffffffffffffffffffffffffffff16905090565b606060018054610c6590612bf2565b80601f0160208091040260200160405190810160405280929190818152602001828054610c9190612bf2565b8015610cde5780601f10610cb357610100808354040283529160200191610cde565b820191906000526020600020905b815481529060010190602001808311610cc157829003601f168201915b5050505050905090565b610cf061127f565b73ffffffffffffffffffffffffffffffffffffffff168273ffffffffffffffffffffffffffffffffffffffff161415610d5e576040517f08c379a0000000000000000000000000000000000000000000000000000000008152600401610d55906127a3565b60405180910390fd5b8060056000610d6b61127f565b73ffffffffffffffffffffffffffffffffffffffff1673ffffffffffffffffffffffffffffffffffffffff16815260200190815260200160002060008473ffffffffffffffffffffffffffffffffffffffff1673ffffffffffffffffffffffffffffffffffffffff16815260200190815260200160002060006101000a81548160ff0219169083151502179055508173ffffffffffffffffffffffffffffffffffffffff16610e1861127f565b73ffffffffffffffffffffffffffffffffffffffff167f17307eab39ab6107e8899845ad3d59bd9653f200f220920489ca2b5937696c3183604051610e5d91906126e6565b60405180910390a35050565b610e7a610e7461127f565b8361134e565b610eb9576040517f08c379a0000000000000000000000000000000000000000000000000000000008152600401610eb090612943565b60405180910390fd5b610ec5848484846119a6565b50505050565b6060610ed682611213565b610f15576040517f08c379a0000000000000000000000000000000000000000000000000000000008152600401610f0c90612883565b60405180910390fd5b6000600660008481526020019081526020016000208054610f3590612bf2565b80601f0160208091040260200160405190810160405280929190818152602001828054610f6190612bf2565b8015610fae5780601f10610f8357610100808354040283529160200191610fae565b820191906000526020600020905b815481529060010190602001808311610f9157829003601f168201915b505050505090506000610fbf611a02565b9050600081511415610fd5578192505050611018565b60008251111561100a578082604051602001610ff2929190612639565b60405160208183030381529060405292505050611018565b61101384611a19565b925050505b919050565b6000600560008473ffffffffffffffffffffffffffffffffffffffff1673ffffffffffffffffffffffffffffffffffffffff16815260200190815260200160002060008373ffffffffffffffffffffffffffffffffffffffff1673ffffffffffffffffffffffffffffffffffffffff16815260200190815260200160002060009054906101000a900460ff16905092915050565b6110b961127f565b73ffffffffffffffffffffffffffffffffffffffff166110d7610c2c565b73ffffffffffffffffffffffffffffffffffffffff161461112d576040517f08c379a0000000000000000000000000000000000000000000000000000000008152600401611124906128c3565b60405180910390fd5b600073ffffffffffffffffffffffffffffffffffffffff168173ffffffffffffffffffffffffffffffffffffffff16141561119d576040517f08c379a000000000000000000000000000000000000000000000000000000000815260040161119490612743565b60405180910390fd5b6111a6816118e0565b50565b60007f01ffc9a7000000000000000000000000000000000000000000000000000000007bffffffffffffffffffffffffffffffffffffffffffffffffffffffff1916827bffffffffffffffffffffffffffffffffffffffffffffffffffffffff1916149050919050565b60008073ffffffffffffffffffffffffffffffffffffffff166002600084815260200190815260200160002060009054906101000a900473ffffffffffffffffffffffffffffffffffffffff1673ffffffffffffffffffffffffffffffffffffffff1614159050919050565b600033905090565b816004600083815260200190815260200160002060006101000a81548173ffffffffffffffffffffffffffffffffffffffff021916908373ffffffffffffffffffffffffffffffffffffffff160217905550808273ffffffffffffffffffffffffffffffffffffffff166112fa8361083f565b73ffffffffffffffffffffffffffffffffffffffff167f8c5be1e5ebec7d5bd14f71427d1e84f3dd0314c0f7b2291e5b200ac8c7c3b92560405160405180910390a45050565b600081600001549050919050565b600061135982611213565b611398576040517f08c379a000000000000000000000000000000000000000000000000000000000815260040161138f906127c3565b60405180910390fd5b60006113a38361083f565b90508073ffffffffffffffffffffffffffffffffffffffff168473ffffffffffffffffffffffffffffffffffffffff16148061141257508373ffffffffffffffffffffffffffffffffffffffff166113fa8461057f565b73ffffffffffffffffffffffffffffffffffffffff16145b806114235750611422818561101d565b5b91505092915050565b8273ffffffffffffffffffffffffffffffffffffffff1661144c8261083f565b73ffffffffffffffffffffffffffffffffffffffff16146114a2576040517f08c379a0000000000000000000000000000000000000000000000000000000008152600401611499906128e3565b60405180910390fd5b600073ffffffffffffffffffffffffffffffffffffffff168273ffffffffffffffffffffffffffffffffffffffff161415611512576040517f08c379a000000000000000000000000000000000000000000000000000000000815260040161150990612783565b60405180910390fd5b61151d838383611ac0565b611528600082611287565b6001600360008573ffffffffffffffffffffffffffffffffffffffff1673ffffffffffffffffffffffffffffffffffffffff16815260200190815260200160002060008282546115789190612b08565b925050819055506001600360008473ffffffffffffffffffffffffffffffffffffffff1673ffffffffffffffffffffffffffffffffffffffff16815260200190815260200160002060008282546115cf9190612a81565b92505081905550816002600083815260200190815260200160002060006101000a81548173ffffffffffffffffffffffffffffffffffffffff021916908373ffffffffffffffffffffffffffffffffffffffff160217905550808273ffffffffffffffffffffffffffffffffffffffff168473ffffffffffffffffffffffffffffffffffffffff167fddf252ad1be2c89b69c2b068fc378daa952ba7f163c4a11628f55a4df523b3ef60405160405180910390a4505050565b6001816000016000828254019250508190555050565b600073ffffffffffffffffffffffffffffffffffffffff168273ffffffffffffffffffffffffffffffffffffffff16141561170e576040517f08c379a000000000000000000000000000000000000000000000000000000000815260040161170590612863565b60405180910390fd5b61171781611213565b15611757576040517f08c379a000000000000000000000000000000000000000000000000000000000815260040161174e90612763565b60405180910390fd5b61176360008383611ac0565b6001600360008473ffffffffffffffffffffffffffffffffffffffff1673ffffffffffffffffffffffffffffffffffffffff16815260200190815260200160002060008282546117b39190612a81565b92505081905550816002600083815260200190815260200160002060006101000a81548173ffffffffffffffffffffffffffffffffffffffff021916908373ffffffffffffffffffffffffffffffffffffffff160217905550808273ffffffffffffffffffffffffffffffffffffffff16600073ffffffffffffffffffffffffffffffffffffffff167fddf252ad1be2c89b69c2b068fc378daa952ba7f163c4a11628f55a4df523b3ef60405160405180910390a45050565b61187582611213565b6118b4576040517f08c379a00000000000000000000000000000000000000000000000000000000081526004016118ab90612843565b60405180910390fd5b806006600084815260200190815260200160002090805190602001906118db929190611e1c565b505050565b6000600760009054906101000a900473ffffffffffffffffffffffffffffffffffffffff16905081600760006101000a81548173ffffffffffffffffffffffffffffffffffffffff021916908373ffffffffffffffffffffffffffffffffffffffff1602179055508173ffffffffffffffffffffffffffffffffffffffff168173ffffffffffffffffffffffffffffffffffffffff167f8be0079c531659141344cd1fd0a4f28419497f9722a3daafe3b4186f6b6457e060405160405180910390a35050565b6119b184848461142c565b6119bd84848484611ac5565b6119fc576040517f08c379a00000000000000000000000000000000000000000000000000000000081526004016119f390612723565b60405180910390fd5b50505050565b606060405180602001604052806000815250905090565b6060611a2482611213565b611a63576040517f08c379a0000000000000000000000000000000000000000000000000000000008152600401611a5a90612903565b60405180910390fd5b6000611a6d611a02565b90506000815111611a8d5760405180602001604052806000815250611ab8565b80611a9784611c5c565b604051602001611aa8929190612639565b6040516020818303038152906040525b915050919050565b505050565b6000611ae68473ffffffffffffffffffffffffffffffffffffffff16611e09565b15611c4f578373ffffffffffffffffffffffffffffffffffffffff1663150b7a02611b0f61127f565b8786866040518563ffffffff1660e01b8152600401611b319493929190612678565b602060405180830381600087803b158015611b4b57600080fd5b505af1925050508015611b7c57506040513d601f19601f82011682018060405250810190611b79919061221c565b60015b611bff573d8060008114611bac576040519150601f19603f3d011682016040523d82523d6000602084013e611bb1565b606091505b50600081511415611bf7576040517f08c379a0000000000000000000000000000000000000000000000000000000008152600401611bee90612723565b60405180910390fd5b805181602001fd5b63150b7a0260e01b7bffffffffffffffffffffffffffffffffffffffffffffffffffffffff1916817bffffffffffffffffffffffffffffffffffffffffffffffffffffffff191614915050611c54565b600190505b949350505050565b60606000821415611ca4576040518060400160405280600181526020017f30000000000000000000000000000000000000000000000000000000000000008152509050611e04565b600082905060005b60008214611cd6578080611cbf90612c55565b915050600a82611ccf9190612ad7565b9150611cac565b60008167ffffffffffffffff811115611d18577f4e487b7100000000000000000000000000000000000000000000000000000000600052604160045260246000fd5b6040519080825280601f01601f191660200182016040528015611d4a5781602001600182028036833780820191505090505b5090505b60008514611dfd57600182611d639190612b08565b9150600a85611d729190612c9e565b6030611d7e9190612a81565b60f81b818381518110611dba577f4e487b7100000000000000000000000000000000000000000000000000000000600052603260045260246000fd5b60200101907effffffffffffffffffffffffffffffffffffffffffffffffffffffffffffff1916908160001a905350600a85611df69190612ad7565b9450611d4e565b8093505050505b919050565b600080823b905060008111915050919050565b828054611e2890612bf2565b90600052602060002090601f016020900481019282611e4a5760008555611e91565b82601f10611e6357805160ff1916838001178555611e91565b82800160010185558215611e91579182015b82811115611e90578251825591602001919060010190611e75565b5b509050611e9e9190611ea2565b5090565b5b80821115611ebb576000816000905550600101611ea3565b5090565b6000611ed2611ecd846129a3565b61297e565b905082815260208101848484011115611eea57600080fd5b611ef5848285612bb0565b509392505050565b6000611f10611f0b846129d4565b61297e565b905082815260208101848484011115611f2857600080fd5b611f33848285612bb0565b509392505050565b600081359050611f4a81613292565b92915050565b600081359050611f5f816132a9565b92915050565b600081359050611f74816132c0565b92915050565b600081519050611f89816132c0565b92915050565b600082601f830112611fa057600080fd5b8135611fb0848260208601611ebf565b91505092915050565b600082601f830112611fca57600080fd5b8135611fda848260208601611efd565b91505092915050565b600081359050611ff2816132d7565b92915050565b60006020828403121561200a57600080fd5b600061201884828501611f3b565b91505092915050565b6000806040838503121561203457600080fd5b600061204285828601611f3b565b925050602061205385828601611f3b565b9150509250929050565b60008060006060848603121561207257600080fd5b600061208086828701611f3b565b935050602061209186828701611f3b565b92505060406120a286828701611fe3565b9150509250925092565b600080600080608085870312156120c257600080fd5b60006120d087828801611f3b565b94505060206120e187828801611f3b565b93505060406120f287828801611fe3565b925050606085013567ffffffffffffffff81111561210f57600080fd5b61211b87828801611f8f565b91505092959194509250565b6000806040838503121561213a57600080fd5b600061214885828601611f3b565b925050602061215985828601611f50565b9150509250929050565b6000806040838503121561217657600080fd5b600061218485828601611f3b565b925050602083013567ffffffffffffffff8111156121a157600080fd5b6121ad85828601611fb9565b9150509250929050565b600080604083850312156121ca57600080fd5b60006121d885828601611f3b565b92505060206121e985828601611fe3565b9150509250929050565b60006020828403121561220557600080fd5b600061221384828501611f65565b91505092915050565b60006020828403121561222e57600080fd5b600061223c84828501611f7a565b91505092915050565b60006020828403121561225757600080fd5b600061226584828501611fe3565b91505092915050565b600061227a838361261b565b60208301905092915050565b61228f81612b3c565b82525050565b60006122a082612a15565b6122aa8185612a43565b93506122b583612a05565b8060005b838110156122e65781516122cd888261226e565b97506122d883612a36565b9250506001810190506122b9565b5085935050505092915050565b6122fc81612b4e565b82525050565b600061230d82612a20565b6123178185612a54565b9350612327818560208601612bbf565b61233081612d8b565b840191505092915050565b600061234682612a2b565b6123508185612a65565b9350612360818560208601612bbf565b61236981612d8b565b840191505092915050565b600061237f82612a2b565b6123898185612a76565b9350612399818560208601612bbf565b80840191505092915050565b60006123b2603283612a65565b91506123bd82612d9c565b604082019050919050565b60006123d5602683612a65565b91506123e082612deb565b604082019050919050565b60006123f8601c83612a65565b915061240382612e3a565b602082019050919050565b600061241b602483612a65565b915061242682612e63565b604082019050919050565b600061243e601983612a65565b915061244982612eb2565b602082019050919050565b6000612461602c83612a65565b915061246c82612edb565b604082019050919050565b6000612484603883612a65565b915061248f82612f2a565b604082019050919050565b60006124a7602a83612a65565b91506124b282612f79565b604082019050919050565b60006124ca602983612a65565b91506124d582612fc8565b604082019050919050565b60006124ed602e83612a65565b91506124f882613017565b604082019050919050565b6000612510602083612a65565b915061251b82613066565b602082019050919050565b6000612533603183612a65565b915061253e8261308f565b604082019050919050565b6000612556602c83612a65565b9150612561826130de565b604082019050919050565b6000612579602083612a65565b91506125848261312d565b602082019050919050565b600061259c602983612a65565b91506125a782613156565b604082019050919050565b60006125bf602f83612a65565b91506125ca826131a5565b604082019050919050565b60006125e2602183612a65565b91506125ed826131f4565b604082019050919050565b6000612605603183612a65565b915061261082613243565b604082019050919050565b61262481612ba6565b82525050565b61263381612ba6565b82525050565b60006126458285612374565b91506126518284612374565b91508190509392505050565b60006020820190506126726000830184612286565b92915050565b600060808201905061268d6000830187612286565b61269a6020830186612286565b6126a7604083018561262a565b81810360608301526126b98184612302565b905095945050505050565b600060208201905081810360008301526126de8184612295565b905092915050565b60006020820190506126fb60008301846122f3565b92915050565b6000602082019050818103600083015261271b818461233b565b905092915050565b6000602082019050818103600083015261273c816123a5565b9050919050565b6000602082019050818103600083015261275c816123c8565b9050919050565b6000602082019050818103600083015261277c816123eb565b9050919050565b6000602082019050818103600083015261279c8161240e565b9050919050565b600060208201905081810360008301526127bc81612431565b9050919050565b600060208201905081810360008301526127dc81612454565b9050919050565b600060208201905081810360008301526127fc81612477565b9050919050565b6000602082019050818103600083015261281c8161249a565b9050919050565b6000602082019050818103600083015261283c816124bd565b9050919050565b6000602082019050818103600083015261285c816124e0565b9050919050565b6000602082019050818103600083015261287c81612503565b9050919050565b6000602082019050818103600083015261289c81612526565b9050919050565b600060208201905081810360008301526128bc81612549565b9050919050565b600060208201905081810360008301526128dc8161256c565b9050919050565b600060208201905081810360008301526128fc8161258f565b9050919050565b6000602082019050818103600083015261291c816125b2565b9050919050565b6000602082019050818103600083015261293c816125d5565b9050919050565b6000602082019050818103600083015261295c816125f8565b9050919050565b6000602082019050612978600083018461262a565b92915050565b6000612988612999565b90506129948282612c24565b919050565b6000604051905090565b600067ffffffffffffffff8211156129be576129bd612d5c565b5b6129c782612d8b565b9050602081019050919050565b600067ffffffffffffffff8211156129ef576129ee612d5c565b5b6129f882612d8b565b9050602081019050919050565b6000819050602082019050919050565b600081519050919050565b600081519050919050565b600081519050919050565b6000602082019050919050565b600082825260208201905092915050565b600082825260208201905092915050565b600082825260208201905092915050565b600081905092915050565b6000612a8c82612ba6565b9150612a9783612ba6565b9250827fffffffffffffffffffffffffffffffffffffffffffffffffffffffffffffffff03821115612acc57612acb612ccf565b5b828201905092915050565b6000612ae282612ba6565b9150612aed83612ba6565b925082612afd57612afc612cfe565b5b828204905092915050565b6000612b1382612ba6565b9150612b1e83612ba6565b925082821015612b3157612b30612ccf565b5b828203905092915050565b6000612b4782612b86565b9050919050565b60008115159050919050565b60007fffffffff0000000000000000000000000000000000000000000000000000000082169050919050565b600073ffffffffffffffffffffffffffffffffffffffff82169050919050565b6000819050919050565b82818337600083830152505050565b60005b83811015612bdd578082015181840152602081019050612bc2565b83811115612bec576000848401525b50505050565b60006002820490506001821680612c0a57607f821691505b60208210811415612c1e57612c1d612d2d565b5b50919050565b612c2d82612d8b565b810181811067ffffffffffffffff82111715612c4c57612c4b612d5c565b5b80604052505050565b6000612c6082612ba6565b91507fffffffffffffffffffffffffffffffffffffffffffffffffffffffffffffffff821415612c9357612c92612ccf565b5b600182019050919050565b6000612ca982612ba6565b9150612cb483612ba6565b925082612cc457612cc3612cfe565b5b828206905092915050565b7f4e487b7100000000000000000000000000000000000000000000000000000000600052601160045260246000fd5b7f4e487b7100000000000000000000000000000000000000000000000000000000600052601260045260246000fd5b7f4e487b7100000000000000000000000000000000000000000000000000000000600052602260045260246000fd5b7f4e487b7100000000000000000000000000000000000000000000000000000000600052604160045260246000fd5b6000601f19601f8301169050919050565b7f4552433732313a207472616e7366657220746f206e6f6e20455243373231526560008201527f63656976657220696d706c656d656e7465720000000000000000000000000000602082015250565b7f4f776e61626c653a206e6577206f776e657220697320746865207a65726f206160008201527f6464726573730000000000000000000000000000000000000000000000000000602082015250565b7f4552433732313a20746f6b656e20616c7265616479206d696e74656400000000600082015250565b7f4552433732313a207472616e7366657220746f20746865207a65726f2061646460008201527f7265737300000000000000000000000000000000000000000000000000000000602082015250565b7f4552433732313a20617070726f766520746f2063616c6c657200000000000000600082015250565b7f4552433732313a206f70657261746f7220717565727920666f72206e6f6e657860008201527f697374656e7420746f6b656e0000000000000000000000000000000000000000602082015250565b7f4552433732313a20617070726f76652063616c6c6572206973206e6f74206f7760008201527f6e6572206e6f7220617070726f76656420666f7220616c6c0000000000000000602082015250565b7f4552433732313a2062616c616e636520717565727920666f7220746865207a6560008201527f726f206164647265737300000000000000000000000000000000000000000000602082015250565b7f4552433732313a206f776e657220717565727920666f72206e6f6e657869737460008201527f656e7420746f6b656e0000000000000000000000000000000000000000000000602082015250565b7f45524337323155524953746f726167653a2055524920736574206f66206e6f6e60008201527f6578697374656e7420746f6b656e000000000000000000000000000000000000602082015250565b7f4552433732313a206d696e7420746f20746865207a65726f2061646472657373600082015250565b7f45524337323155524953746f726167653a2055524920717565727920666f722060008201527f6e6f6e6578697374656e7420746f6b656e000000000000000000000000000000602082015250565b7f4552433732313a20617070726f76656420717565727920666f72206e6f6e657860008201527f697374656e7420746f6b656e0000000000000000000000000000000000000000602082015250565b7f4f776e61626c653a2063616c6c6572206973206e6f7420746865206f776e6572600082015250565b7f4552433732313a207472616e73666572206f6620746f6b656e2074686174206960008201527f73206e6f74206f776e0000000000000000000000000000000000000000000000602082015250565b7f4552433732314d657461646174613a2055524920717565727920666f72206e6f60008201527f6e6578697374656e7420746f6b656e0000000000000000000000000000000000602082015250565b7f4552433732313a20617070726f76616c20746f2063757272656e74206f776e6560008201527f7200000000000000000000000000000000000000000000000000000000000000602082015250565b7f4552433732313a207472616e736665722063616c6c6572206973206e6f74206f60008201527f776e6572206e6f7220617070726f766564000000000000000000000000000000602082015250565b61329b81612b3c565b81146132a657600080fd5b50565b6132b281612b4e565b81146132bd57600080fd5b50565b6132c981612b5a565b81146132d457600080fd5b50565b6132e081612ba6565b81146132eb57600080fd5b5056fea2646970667358221220e417a2ad6d32f00779232f1a8d94f22332fcff3874364d1d81ca9e674805d67164736f6c63430008040033",
  "linkReferences": {},
  "deployedLinkReferences": {}
}