{
  "_format": "hh-sol-artifact-1",
  "contractName": "Artwork",
  "sourceName": "contracts/artwork.sol",
  "abi": [
    {
      "inputs": [
        {
          "internalType": "string",
          "name": "name",
          "type": "string"
        },
        {
          "internalType": "string",
          "name": "symbol",
          "type": "string"
        }
      ],
      "stateMutability": "nonpayable",
      "type": "constructor"
    },
    {
      "anonymous": false,
      "inputs": [
        {
          "indexed": true,
          "internalType": "address",
          "name": "owner",
          "type": "address"
        },
        {
          "indexed": true,
          "internalType": "address",
          "name": "approved",
          "type": "address"
        },
        {
          "indexed": true,
          "internalType": "uint256",
          "name": "tokenId",
          "type": "uint256"
        }
      ],
      "name": "Approval",
      "type": "event"
    },
    {
      "anonymous": false,
      "inputs": [
        {
          "indexed": true,
          "internalType": "address",
          "name": "owner",
          "type": "address"
        },
        {
          "indexed": true,
          "internalType": "address",
          "name": "operator",
          "type": "address"
        },
        {
          "indexed": false,
          "internalType": "bool",
          "name": "approved",
          "type": "bool"
        }
      ],
      "name": "ApprovalForAll",
      "type": "event"
    },
    {
      "anonymous": false,
      "inputs": [
        {
          "indexed": true,
          "internalType": "address",
          "name": "from",
          "type": "address"
        },
        {
          "indexed": true,
          "internalType": "address",
          "name": "to",
          "type": "address"
        },
        {
          "indexed": true,
          "internalType": "uint256",
          "name": "tokenId",
          "type": "uint256"
        }
      ],
      "name": "Transfer",
      "type": "event"
    },
    {
      "inputs": [
        {
          "internalType": "address",
          "name": "to",
          "type": "address"
        },
        {
          "internalType": "uint256",
          "name": "tokenId",
          "type": "uint256"
        }
      ],
      "name": "approve",
      "outputs": [],
      "stateMutability": "nonpayable",
      "type": "function"
    },
    {
      "inputs": [
        {
          "internalType": "address",
          "name": "owner",
          "type": "address"
        }
      ],
      "name": "balanceOf",
      "outputs": [
        {
          "internalType": "uint256",
          "name": "",
          "type": "uint256"
        }
      ],
      "stateMutability": "view",
      "type": "function"
    },
    {
      "inputs": [
        {
          "internalType": "uint256",
          "name": "tokenId",
          "type": "uint256"
        }
      ],
      "name": "getApproved",
      "outputs": [
        {
          "internalType": "address",
          "name": "",
          "type": "address"
        }
      ],
      "stateMutability": "view",
      "type": "function"
    },
    {
      "inputs": [
        {
          "internalType": "address",
          "name": "owner",
          "type": "address"
        },
        {
          "internalType": "address",
          "name": "operator",
          "type": "address"
        }
      ],
      "name": "isApprovedForAll",
      "outputs": [
        {
          "internalType": "bool",
          "name": "",
          "type": "bool"
        }
      ],
      "stateMutability": "view",
      "type": "function"
    },
    {
      "inputs": [
        {
          "internalType": "string",
          "name": "_tokenURI",
          "type": "string"
        }
      ],
      "name": "mint",
      "outputs": [],
      "stateMutability": "nonpayable",
      "type": "function"
    },
    {
      "inputs": [],
      "name": "name",
      "outputs": [
        {
          "internalType": "string",
          "name": "",
          "type": "string"
        }
      ],
      "stateMutability": "view",
      "type": "function"
    },
    {
      "inputs": [
        {
          "internalType": "uint256",
          "name": "tokenId",
          "type": "uint256"
        }
      ],
      "name": "ownerOf",
      "outputs": [
        {
          "internalType": "address",
          "name": "",
          "type": "address"
        }
      ],
      "stateMutability": "view",
      "type": "function"
    },
    {
      "inputs": [
        {
          "internalType": "address",
          "name": "from",
          "type": "address"
        },
        {
          "internalType": "address",
          "name": "to",
          "type": "address"
        },
        {
          "internalType": "uint256",
          "name": "tokenId",
          "type": "uint256"
        }
      ],
      "name": "safeTransferFrom",
      "outputs": [],
      "stateMutability": "nonpayable",
      "type": "function"
    },
    {
      "inputs": [
        {
          "internalType": "address",
          "name": "from",
          "type": "address"
        },
        {
          "internalType": "address",
          "name": "to",
          "type": "address"
        },
        {
          "internalType": "uint256",
          "name": "tokenId",
          "type": "uint256"
        },
        {
          "internalType": "bytes",
          "name": "_data",
          "type": "bytes"
        }
      ],
      "name": "safeTransferFrom",
      "outputs": [],
      "stateMutability": "nonpayable",
      "type": "function"
    },
    {
      "inputs": [
        {
          "internalType": "address",
          "name": "operator",
          "type": "address"
        },
        {
          "internalType": "bool",
          "name": "approved",
          "type": "bool"
        }
      ],
      "name": "setApprovalForAll",
      "outputs": [],
      "stateMutability": "nonpayable",
      "type": "function"
    },
    {
      "inputs": [
        {
          "internalType": "bytes4",
          "name": "interfaceId",
          "type": "bytes4"
        }
      ],
      "name": "supportsInterface",
      "outputs": [
        {
          "internalType": "bool",
          "name": "",
          "type": "bool"
        }
      ],
      "stateMutability": "view",
      "type": "function"
    },
    {
      "inputs": [],
      "name": "symbol",
      "outputs": [
        {
          "internalType": "string",
          "name": "",
          "type": "string"
        }
      ],
      "stateMutability": "view",
      "type": "function"
    },
    {
      "inputs": [],
      "name": "tokenCounter",
      "outputs": [
        {
          "internalType": "uint256",
          "name": "",
          "type": "uint256"
        }
      ],
      "stateMutability": "view",
      "type": "function"
    },
    {
      "inputs": [
        {
          "internalType": "uint256",
          "name": "_tokenId",
          "type": "uint256"
        }
      ],
      "name": "tokenURI",
      "outputs": [
        {
          "internalType": "string",
          "name": "",
          "type": "string"
        }
      ],
      "stateMutability": "view",
      "type": "function"
    },
    {
      "inputs": [
        {
          "internalType": "address",
          "name": "from",
          "type": "address"
        },
        {
          "internalType": "address",
          "name": "to",
          "type": "address"
        },
        {
          "internalType": "uint256",
          "name": "tokenId",
          "type": "uint256"
        }
      ],
      "name": "transferFrom",
      "outputs": [],
      "stateMutability": "nonpayable",
      "type": "function"
    }
  ],
  "bytecode": "0x60806040523480156200001157600080fd5b5060405162002a7138038062002a7183398181016040528101906200003791906200019f565b81818160009080519060200190620000519291906200007d565b5080600190805190602001906200006a9291906200007d565b5050506000600681905550505062000382565b8280546200008b90620002a7565b90600052602060002090601f016020900481019282620000af5760008555620000fb565b82601f10620000ca57805160ff1916838001178555620000fb565b82800160010185558215620000fb579182015b82811115620000fa578251825591602001919060010190620000dd565b5b5090506200010a91906200010e565b5090565b5b80821115620001295760008160009055506001016200010f565b5090565b6000620001446200013e846200023b565b62000212565b9050828152602081018484840111156200015d57600080fd5b6200016a84828562000271565b509392505050565b600082601f8301126200018457600080fd5b8151620001968482602086016200012d565b91505092915050565b60008060408385031215620001b357600080fd5b600083015167ffffffffffffffff811115620001ce57600080fd5b620001dc8582860162000172565b925050602083015167ffffffffffffffff811115620001fa57600080fd5b620002088582860162000172565b9150509250929050565b60006200021e62000231565b90506200022c8282620002dd565b919050565b6000604051905090565b600067ffffffffffffffff82111562000259576200025862000342565b5b620002648262000371565b9050602081019050919050565b60005b838110156200029157808201518184015260208101905062000274565b83811115620002a1576000848401525b50505050565b60006002820490506001821680620002c057607f821691505b60208210811415620002d757620002d662000313565b5b50919050565b620002e88262000371565b810181811067ffffffffffffffff821117156200030a576200030962000342565b5b80604052505050565b7f4e487b7100000000000000000000000000000000000000000000000000000000600052602260045260246000fd5b7f4e487b7100000000000000000000000000000000000000000000000000000000600052604160045260246000fd5b6000601f19601f8301169050919050565b6126df80620003926000396000f3fe608060405234801561001057600080fd5b50600436106100f55760003560e01c806370a0823111610097578063c87b56dd11610066578063c87b56dd14610282578063d082e381146102b2578063d85d3d27146102d0578063e985e9c5146102ec576100f5565b806370a08231146101fc57806395d89b411461022c578063a22cb4651461024a578063b88d4fde14610266576100f5565b8063095ea7b3116100d3578063095ea7b31461017857806323b872dd1461019457806342842e0e146101b05780636352211e146101cc576100f5565b806301ffc9a7146100fa57806306fdde031461012a578063081812fc14610148575b600080fd5b610114600480360381019061010f9190611960565b61031c565b6040516101219190611d0c565b60405180910390f35b6101326103fe565b60405161013f9190611d27565b60405180910390f35b610162600480360381019061015d91906119f3565b610490565b60405161016f9190611ca5565b60405180910390f35b610192600480360381019061018d9190611924565b610515565b005b6101ae60048036038101906101a9919061181e565b61062d565b005b6101ca60048036038101906101c5919061181e565b61068d565b005b6101e660048036038101906101e191906119f3565b6106ad565b6040516101f39190611ca5565b60405180910390f35b610216600480360381019061021191906117b9565b61075f565b6040516102239190611f09565b60405180910390f35b610234610817565b6040516102419190611d27565b60405180910390f35b610264600480360381019061025f91906118e8565b6108a9565b005b610280600480360381019061027b919061186d565b610a2a565b005b61029c600480360381019061029791906119f3565b610a8c565b6040516102a99190611d27565b60405180910390f35b6102ba610b79565b6040516102c79190611f09565b60405180910390f35b6102ea60048036038101906102e591906119b2565b610b7f565b005b610306600480360381019061030191906117e2565b610bb2565b6040516103139190611d0c565b60405180910390f35b60007f80ac58cd000000000000000000000000000000000000000000000000000000007bffffffffffffffffffffffffffffffffffffffffffffffffffffffff1916827bffffffffffffffffffffffffffffffffffffffffffffffffffffffff191614806103e757507f5b5e139f000000000000000000000000000000000000000000000000000000007bffffffffffffffffffffffffffffffffffffffffffffffffffffffff1916827bffffffffffffffffffffffffffffffffffffffffffffffffffffffff1916145b806103f757506103f682610c46565b5b9050919050565b60606000805461040d90612123565b80601f016020809104026020016040519081016040528092919081815260200182805461043990612123565b80156104865780601f1061045b57610100808354040283529160200191610486565b820191906000526020600020905b81548152906001019060200180831161046957829003601f168201915b5050505050905090565b600061049b82610cb0565b6104da576040517f08c379a00000000000000000000000000000000000000000000000000000000081526004016104d190611e69565b60405180910390fd5b6004600083815260200190815260200160002060009054906101000a900473ffffffffffffffffffffffffffffffffffffffff169050919050565b6000610520826106ad565b90508073ffffffffffffffffffffffffffffffffffffffff168373ffffffffffffffffffffffffffffffffffffffff161415610591576040517f08c379a000000000000000000000000000000000000000000000000000000000815260040161058890611ec9565b60405180910390fd5b8073ffffffffffffffffffffffffffffffffffffffff166105b0610d1c565b73ffffffffffffffffffffffffffffffffffffffff1614806105df57506105de816105d9610d1c565b610bb2565b5b61061e576040517f08c379a000000000000000000000000000000000000000000000000000000000815260040161061590611de9565b60405180910390fd5b6106288383610d24565b505050565b61063e610638610d1c565b82610ddd565b61067d576040517f08c379a000000000000000000000000000000000000000000000000000000000815260040161067490611ee9565b60405180910390fd5b610688838383610ebb565b505050565b6106a883838360405180602001604052806000815250610a2a565b505050565b6000806002600084815260200190815260200160002060009054906101000a900473ffffffffffffffffffffffffffffffffffffffff169050600073ffffffffffffffffffffffffffffffffffffffff168173ffffffffffffffffffffffffffffffffffffffff161415610756576040517f08c379a000000000000000000000000000000000000000000000000000000000815260040161074d90611e29565b60405180910390fd5b80915050919050565b60008073ffffffffffffffffffffffffffffffffffffffff168273ffffffffffffffffffffffffffffffffffffffff1614156107d0576040517f08c379a00000000000000000000000000000000000000000000000000000000081526004016107c790611e09565b60405180910390fd5b600360008373ffffffffffffffffffffffffffffffffffffffff1673ffffffffffffffffffffffffffffffffffffffff168152602001908152602001600020549050919050565b60606001805461082690612123565b80601f016020809104026020016040519081016040528092919081815260200182805461085290612123565b801561089f5780601f106108745761010080835404028352916020019161089f565b820191906000526020600020905b81548152906001019060200180831161088257829003601f168201915b5050505050905090565b6108b1610d1c565b73ffffffffffffffffffffffffffffffffffffffff168273ffffffffffffffffffffffffffffffffffffffff16141561091f576040517f08c379a000000000000000000000000000000000000000000000000000000000815260040161091690611da9565b60405180910390fd5b806005600061092c610d1c565b73ffffffffffffffffffffffffffffffffffffffff1673ffffffffffffffffffffffffffffffffffffffff16815260200190815260200160002060008473ffffffffffffffffffffffffffffffffffffffff1673ffffffffffffffffffffffffffffffffffffffff16815260200190815260200160002060006101000a81548160ff0219169083151502179055508173ffffffffffffffffffffffffffffffffffffffff166109d9610d1c565b73ffffffffffffffffffffffffffffffffffffffff167f17307eab39ab6107e8899845ad3d59bd9653f200f220920489ca2b5937696c3183604051610a1e9190611d0c565b60405180910390a35050565b610a3b610a35610d1c565b83610ddd565b610a7a576040517f08c379a0000000000000000000000000000000000000000000000000000000008152600401610a7190611ee9565b60405180910390fd5b610a8684848484611117565b50505050565b6060610a9782610cb0565b610ad6576040517f08c379a0000000000000000000000000000000000000000000000000000000008152600401610acd90611e89565b60405180910390fd5b600760008381526020019081526020016000208054610af490612123565b80601f0160208091040260200160405190810160405280929190818152602001828054610b2090612123565b8015610b6d5780601f10610b4257610100808354040283529160200191610b6d565b820191906000526020600020905b815481529060010190602001808311610b5057829003601f168201915b50505050509050919050565b60065481565b610b8b33600654611173565b610b9760065482611191565b60066000815480929190610baa90612186565b919050555050565b6000600560008473ffffffffffffffffffffffffffffffffffffffff1673ffffffffffffffffffffffffffffffffffffffff16815260200190815260200160002060008373ffffffffffffffffffffffffffffffffffffffff1673ffffffffffffffffffffffffffffffffffffffff16815260200190815260200160002060009054906101000a900460ff16905092915050565b60007f01ffc9a7000000000000000000000000000000000000000000000000000000007bffffffffffffffffffffffffffffffffffffffffffffffffffffffff1916827bffffffffffffffffffffffffffffffffffffffffffffffffffffffff1916149050919050565b60008073ffffffffffffffffffffffffffffffffffffffff166002600084815260200190815260200160002060009054906101000a900473ffffffffffffffffffffffffffffffffffffffff1673ffffffffffffffffffffffffffffffffffffffff1614159050919050565b600033905090565b816004600083815260200190815260200160002060006101000a81548173ffffffffffffffffffffffffffffffffffffffff021916908373ffffffffffffffffffffffffffffffffffffffff160217905550808273ffffffffffffffffffffffffffffffffffffffff16610d97836106ad565b73ffffffffffffffffffffffffffffffffffffffff167f8c5be1e5ebec7d5bd14f71427d1e84f3dd0314c0f7b2291e5b200ac8c7c3b92560405160405180910390a45050565b6000610de882610cb0565b610e27576040517f08c379a0000000000000000000000000000000000000000000000000000000008152600401610e1e90611dc9565b60405180910390fd5b6000610e32836106ad565b90508073ffffffffffffffffffffffffffffffffffffffff168473ffffffffffffffffffffffffffffffffffffffff161480610ea157508373ffffffffffffffffffffffffffffffffffffffff16610e8984610490565b73ffffffffffffffffffffffffffffffffffffffff16145b80610eb25750610eb18185610bb2565b5b91505092915050565b8273ffffffffffffffffffffffffffffffffffffffff16610edb826106ad565b73ffffffffffffffffffffffffffffffffffffffff1614610f31576040517f08c379a0000000000000000000000000000000000000000000000000000000008152600401610f2890611ea9565b60405180910390fd5b600073ffffffffffffffffffffffffffffffffffffffff168273ffffffffffffffffffffffffffffffffffffffff161415610fa1576040517f08c379a0000000000000000000000000000000000000000000000000000000008152600401610f9890611d89565b60405180910390fd5b610fac838383611205565b610fb7600082610d24565b6001600360008573ffffffffffffffffffffffffffffffffffffffff1673ffffffffffffffffffffffffffffffffffffffff16815260200190815260200160002060008282546110079190612039565b925050819055506001600360008473ffffffffffffffffffffffffffffffffffffffff1673ffffffffffffffffffffffffffffffffffffffff168152602001908152602001600020600082825461105e9190611fe3565b92505081905550816002600083815260200190815260200160002060006101000a81548173ffffffffffffffffffffffffffffffffffffffff021916908373ffffffffffffffffffffffffffffffffffffffff160217905550808273ffffffffffffffffffffffffffffffffffffffff168473ffffffffffffffffffffffffffffffffffffffff167fddf252ad1be2c89b69c2b068fc378daa952ba7f163c4a11628f55a4df523b3ef60405160405180910390a4505050565b611122848484610ebb565b61112e8484848461120a565b61116d576040517f08c379a000000000000000000000000000000000000000000000000000000000815260040161116490611d49565b60405180910390fd5b50505050565b61118d8282604051806020016040528060008152506113a1565b5050565b61119a82610cb0565b6111d9576040517f08c379a00000000000000000000000000000000000000000000000000000000081526004016111d090611e89565b60405180910390fd5b806007600084815260200190815260200160002090805190602001906112009291906115dd565b505050565b505050565b600061122b8473ffffffffffffffffffffffffffffffffffffffff166113fc565b15611394578373ffffffffffffffffffffffffffffffffffffffff1663150b7a02611254610d1c565b8786866040518563ffffffff1660e01b81526004016112769493929190611cc0565b602060405180830381600087803b15801561129057600080fd5b505af19250505080156112c157506040513d601f19601f820116820180604052508101906112be9190611989565b60015b611344573d80600081146112f1576040519150601f19603f3d011682016040523d82523d6000602084013e6112f6565b606091505b5060008151141561133c576040517f08c379a000000000000000000000000000000000000000000000000000000000815260040161133390611d49565b60405180910390fd5b805181602001fd5b63150b7a0260e01b7bffffffffffffffffffffffffffffffffffffffffffffffffffffffff1916817bffffffffffffffffffffffffffffffffffffffffffffffffffffffff191614915050611399565b600190505b949350505050565b6113ab838361140f565b6113b8600084848461120a565b6113f7576040517f08c379a00000000000000000000000000000000000000000000000000000000081526004016113ee90611d49565b60405180910390fd5b505050565b600080823b905060008111915050919050565b600073ffffffffffffffffffffffffffffffffffffffff168273ffffffffffffffffffffffffffffffffffffffff16141561147f576040517f08c379a000000000000000000000000000000000000000000000000000000000815260040161147690611e49565b60405180910390fd5b61148881610cb0565b156114c8576040517f08c379a00000000000000000000000000000000000000000000000000000000081526004016114bf90611d69565b60405180910390fd5b6114d460008383611205565b6001600360008473ffffffffffffffffffffffffffffffffffffffff1673ffffffffffffffffffffffffffffffffffffffff16815260200190815260200160002060008282546115249190611fe3565b92505081905550816002600083815260200190815260200160002060006101000a81548173ffffffffffffffffffffffffffffffffffffffff021916908373ffffffffffffffffffffffffffffffffffffffff160217905550808273ffffffffffffffffffffffffffffffffffffffff16600073ffffffffffffffffffffffffffffffffffffffff167fddf252ad1be2c89b69c2b068fc378daa952ba7f163c4a11628f55a4df523b3ef60405160405180910390a45050565b8280546115e990612123565b90600052602060002090601f01602090048101928261160b5760008555611652565b82601f1061162457805160ff1916838001178555611652565b82800160010185558215611652579182015b82811115611651578251825591602001919060010190611636565b5b50905061165f9190611663565b5090565b5b8082111561167c576000816000905550600101611664565b5090565b600061169361168e84611f49565b611f24565b9050828152602081018484840111156116ab57600080fd5b6116b68482856120e1565b509392505050565b60006116d16116cc84611f7a565b611f24565b9050828152602081018484840111156116e957600080fd5b6116f48482856120e1565b509392505050565b60008135905061170b8161264d565b92915050565b60008135905061172081612664565b92915050565b6000813590506117358161267b565b92915050565b60008151905061174a8161267b565b92915050565b600082601f83011261176157600080fd5b8135611771848260208601611680565b91505092915050565b600082601f83011261178b57600080fd5b813561179b8482602086016116be565b91505092915050565b6000813590506117b381612692565b92915050565b6000602082840312156117cb57600080fd5b60006117d9848285016116fc565b91505092915050565b600080604083850312156117f557600080fd5b6000611803858286016116fc565b9250506020611814858286016116fc565b9150509250929050565b60008060006060848603121561183357600080fd5b6000611841868287016116fc565b9350506020611852868287016116fc565b9250506040611863868287016117a4565b9150509250925092565b6000806000806080858703121561188357600080fd5b6000611891878288016116fc565b94505060206118a2878288016116fc565b93505060406118b3878288016117a4565b925050606085013567ffffffffffffffff8111156118d057600080fd5b6118dc87828801611750565b91505092959194509250565b600080604083850312156118fb57600080fd5b6000611909858286016116fc565b925050602061191a85828601611711565b9150509250929050565b6000806040838503121561193757600080fd5b6000611945858286016116fc565b9250506020611956858286016117a4565b9150509250929050565b60006020828403121561197257600080fd5b600061198084828501611726565b91505092915050565b60006020828403121561199b57600080fd5b60006119a98482850161173b565b91505092915050565b6000602082840312156119c457600080fd5b600082013567ffffffffffffffff8111156119de57600080fd5b6119ea8482850161177a565b91505092915050565b600060208284031215611a0557600080fd5b6000611a13848285016117a4565b91505092915050565b611a258161206d565b82525050565b611a348161207f565b82525050565b6000611a4582611fab565b611a4f8185611fc1565b9350611a5f8185602086016120f0565b611a688161225c565b840191505092915050565b6000611a7e82611fb6565b611a888185611fd2565b9350611a988185602086016120f0565b611aa18161225c565b840191505092915050565b6000611ab9603283611fd2565b9150611ac48261226d565b604082019050919050565b6000611adc601c83611fd2565b9150611ae7826122bc565b602082019050919050565b6000611aff602483611fd2565b9150611b0a826122e5565b604082019050919050565b6000611b22601983611fd2565b9150611b2d82612334565b602082019050919050565b6000611b45602c83611fd2565b9150611b508261235d565b604082019050919050565b6000611b68603883611fd2565b9150611b73826123ac565b604082019050919050565b6000611b8b602a83611fd2565b9150611b96826123fb565b604082019050919050565b6000611bae602983611fd2565b9150611bb98261244a565b604082019050919050565b6000611bd1602083611fd2565b9150611bdc82612499565b602082019050919050565b6000611bf4602c83611fd2565b9150611bff826124c2565b604082019050919050565b6000611c17602c83611fd2565b9150611c2282612511565b604082019050919050565b6000611c3a602983611fd2565b9150611c4582612560565b604082019050919050565b6000611c5d602183611fd2565b9150611c68826125af565b604082019050919050565b6000611c80603183611fd2565b9150611c8b826125fe565b604082019050919050565b611c9f816120d7565b82525050565b6000602082019050611cba6000830184611a1c565b92915050565b6000608082019050611cd56000830187611a1c565b611ce26020830186611a1c565b611cef6040830185611c96565b8181036060830152611d018184611a3a565b905095945050505050565b6000602082019050611d216000830184611a2b565b92915050565b60006020820190508181036000830152611d418184611a73565b905092915050565b60006020820190508181036000830152611d6281611aac565b9050919050565b60006020820190508181036000830152611d8281611acf565b9050919050565b60006020820190508181036000830152611da281611af2565b9050919050565b60006020820190508181036000830152611dc281611b15565b9050919050565b60006020820190508181036000830152611de281611b38565b9050919050565b60006020820190508181036000830152611e0281611b5b565b9050919050565b60006020820190508181036000830152611e2281611b7e565b9050919050565b60006020820190508181036000830152611e4281611ba1565b9050919050565b60006020820190508181036000830152611e6281611bc4565b9050919050565b60006020820190508181036000830152611e8281611be7565b9050919050565b60006020820190508181036000830152611ea281611c0a565b9050919050565b60006020820190508181036000830152611ec281611c2d565b9050919050565b60006020820190508181036000830152611ee281611c50565b9050919050565b60006020820190508181036000830152611f0281611c73565b9050919050565b6000602082019050611f1e6000830184611c96565b92915050565b6000611f2e611f3f565b9050611f3a8282612155565b919050565b6000604051905090565b600067ffffffffffffffff821115611f6457611f6361222d565b5b611f6d8261225c565b9050602081019050919050565b600067ffffffffffffffff821115611f9557611f9461222d565b5b611f9e8261225c565b9050602081019050919050565b600081519050919050565b600081519050919050565b600082825260208201905092915050565b600082825260208201905092915050565b6000611fee826120d7565b9150611ff9836120d7565b9250827fffffffffffffffffffffffffffffffffffffffffffffffffffffffffffffffff0382111561202e5761202d6121cf565b5b828201905092915050565b6000612044826120d7565b915061204f836120d7565b925082821015612062576120616121cf565b5b828203905092915050565b6000612078826120b7565b9050919050565b60008115159050919050565b60007fffffffff0000000000000000000000000000000000000000000000000000000082169050919050565b600073ffffffffffffffffffffffffffffffffffffffff82169050919050565b6000819050919050565b82818337600083830152505050565b60005b8381101561210e5780820151818401526020810190506120f3565b8381111561211d576000848401525b50505050565b6000600282049050600182168061213b57607f821691505b6020821081141561214f5761214e6121fe565b5b50919050565b61215e8261225c565b810181811067ffffffffffffffff8211171561217d5761217c61222d565b5b80604052505050565b6000612191826120d7565b91507fffffffffffffffffffffffffffffffffffffffffffffffffffffffffffffffff8214156121c4576121c36121cf565b5b600182019050919050565b7f4e487b7100000000000000000000000000000000000000000000000000000000600052601160045260246000fd5b7f4e487b7100000000000000000000000000000000000000000000000000000000600052602260045260246000fd5b7f4e487b7100000000000000000000000000000000000000000000000000000000600052604160045260246000fd5b6000601f19601f8301169050919050565b7f4552433732313a207472616e7366657220746f206e6f6e20455243373231526560008201527f63656976657220696d706c656d656e7465720000000000000000000000000000602082015250565b7f4552433732313a20746f6b656e20616c7265616479206d696e74656400000000600082015250565b7f4552433732313a207472616e7366657220746f20746865207a65726f2061646460008201527f7265737300000000000000000000000000000000000000000000000000000000602082015250565b7f4552433732313a20617070726f766520746f2063616c6c657200000000000000600082015250565b7f4552433732313a206f70657261746f7220717565727920666f72206e6f6e657860008201527f697374656e7420746f6b656e0000000000000000000000000000000000000000602082015250565b7f4552433732313a20617070726f76652063616c6c6572206973206e6f74206f7760008201527f6e6572206e6f7220617070726f76656420666f7220616c6c0000000000000000602082015250565b7f4552433732313a2062616c616e636520717565727920666f7220746865207a6560008201527f726f206164647265737300000000000000000000000000000000000000000000602082015250565b7f4552433732313a206f776e657220717565727920666f72206e6f6e657869737460008201527f656e7420746f6b656e0000000000000000000000000000000000000000000000602082015250565b7f4552433732313a206d696e7420746f20746865207a65726f2061646472657373600082015250565b7f4552433732313a20617070726f76656420717565727920666f72206e6f6e657860008201527f697374656e7420746f6b656e0000000000000000000000000000000000000000602082015250565b7f4552433732314d657461646174613a2055524920736574206f66206e6f6e657860008201527f697374656e7420746f6b656e0000000000000000000000000000000000000000602082015250565b7f4552433732313a207472616e73666572206f6620746f6b656e2074686174206960008201527f73206e6f74206f776e0000000000000000000000000000000000000000000000602082015250565b7f4552433732313a20617070726f76616c20746f2063757272656e74206f776e6560008201527f7200000000000000000000000000000000000000000000000000000000000000602082015250565b7f4552433732313a207472616e736665722063616c6c6572206973206e6f74206f60008201527f776e6572206e6f7220617070726f766564000000000000000000000000000000602082015250565b6126568161206d565b811461266157600080fd5b50565b61266d8161207f565b811461267857600080fd5b50565b6126848161208b565b811461268f57600080fd5b50565b61269b816120d7565b81146126a657600080fd5b5056fea26469706673582212205dbefc0f3a6a2a35266fecc7834e5d2ced08e38b090cf51d6a2a3e03814f6c1764736f6c63430008040033",
  "linkReferences": {},
  "deployedLinkReferences": {}
}