{
  "_format": "hh-sol-artifact-1",
  "contractName": "Avatar",
  "sourceName": "contracts/Avatar.sol",
  "abi": [
    {
      "inputs": [],
      "stateMutability": "nonpayable",
      "type": "constructor"
    },
    {
      "anonymous": false,
      "inputs": [
        {
          "indexed": true,
          "internalType": "address",
          "name": "owner",
          "type": "address"
        },
        {
          "indexed": true,
          "internalType": "address",
          "name": "approved",
          "type": "address"
        },
        {
          "indexed": true,
          "internalType": "uint256",
          "name": "tokenId",
          "type": "uint256"
        }
      ],
      "name": "Approval",
      "type": "event"
    },
    {
      "anonymous": false,
      "inputs": [
        {
          "indexed": true,
          "internalType": "address",
          "name": "owner",
          "type": "address"
        },
        {
          "indexed": true,
          "internalType": "address",
          "name": "operator",
          "type": "address"
        },
        {
          "indexed": false,
          "internalType": "bool",
          "name": "approved",
          "type": "bool"
        }
      ],
      "name": "ApprovalForAll",
      "type": "event"
    },
    {
      "anonymous": false,
      "inputs": [
        {
          "indexed": true,
          "internalType": "address",
          "name": "previousOwner",
          "type": "address"
        },
        {
          "indexed": true,
          "internalType": "address",
          "name": "newOwner",
          "type": "address"
        }
      ],
      "name": "OwnershipTransferred",
      "type": "event"
    },
    {
      "anonymous": false,
      "inputs": [
        {
          "indexed": true,
          "internalType": "address",
          "name": "from",
          "type": "address"
        },
        {
          "indexed": true,
          "internalType": "address",
          "name": "to",
          "type": "address"
        },
        {
          "indexed": true,
          "internalType": "uint256",
          "name": "tokenId",
          "type": "uint256"
        }
      ],
      "name": "Transfer",
      "type": "event"
    },
    {
      "inputs": [
        {
          "internalType": "address",
          "name": "to",
          "type": "address"
        },
        {
          "internalType": "uint256",
          "name": "tokenId",
          "type": "uint256"
        }
      ],
      "name": "approve",
      "outputs": [],
      "stateMutability": "nonpayable",
      "type": "function"
    },
    {
      "inputs": [
        {
          "internalType": "address",
          "name": "player",
          "type": "address"
        },
        {
          "internalType": "string",
          "name": "tokenURI",
          "type": "string"
        }
      ],
      "name": "awardToken",
      "outputs": [
        {
          "internalType": "uint256",
          "name": "",
          "type": "uint256"
        }
      ],
      "stateMutability": "nonpayable",
      "type": "function"
    },
    {
      "inputs": [
        {
          "internalType": "address",
          "name": "owner",
          "type": "address"
        }
      ],
      "name": "balanceOf",
      "outputs": [
        {
          "internalType": "uint256",
          "name": "",
          "type": "uint256"
        }
      ],
      "stateMutability": "view",
      "type": "function"
    },
    {
      "inputs": [
        {
          "internalType": "uint256",
          "name": "tokenId",
          "type": "uint256"
        }
      ],
      "name": "getApproved",
      "outputs": [
        {
          "internalType": "address",
          "name": "",
          "type": "address"
        }
      ],
      "stateMutability": "view",
      "type": "function"
    },
    {
      "inputs": [
        {
          "internalType": "address",
          "name": "owner",
          "type": "address"
        },
        {
          "internalType": "address",
          "name": "operator",
          "type": "address"
        }
      ],
      "name": "isApprovedForAll",
      "outputs": [
        {
          "internalType": "bool",
          "name": "",
          "type": "bool"
        }
      ],
      "stateMutability": "view",
      "type": "function"
    },
    {
      "inputs": [],
      "name": "name",
      "outputs": [
        {
          "internalType": "string",
          "name": "",
          "type": "string"
        }
      ],
      "stateMutability": "view",
      "type": "function"
    },
    {
      "inputs": [],
      "name": "owner",
      "outputs": [
        {
          "internalType": "address",
          "name": "",
          "type": "address"
        }
      ],
      "stateMutability": "view",
      "type": "function"
    },
    {
      "inputs": [
        {
          "internalType": "uint256",
          "name": "tokenId",
          "type": "uint256"
        }
      ],
      "name": "ownerOf",
      "outputs": [
        {
          "internalType": "address",
          "name": "",
          "type": "address"
        }
      ],
      "stateMutability": "view",
      "type": "function"
    },
    {
      "inputs": [],
      "name": "renounceOwnership",
      "outputs": [],
      "stateMutability": "nonpayable",
      "type": "function"
    },
    {
      "inputs": [
        {
          "internalType": "address",
          "name": "from",
          "type": "address"
        },
        {
          "internalType": "address",
          "name": "to",
          "type": "address"
        },
        {
          "internalType": "uint256",
          "name": "tokenId",
          "type": "uint256"
        }
      ],
      "name": "safeTransferFrom",
      "outputs": [],
      "stateMutability": "nonpayable",
      "type": "function"
    },
    {
      "inputs": [
        {
          "internalType": "address",
          "name": "from",
          "type": "address"
        },
        {
          "internalType": "address",
          "name": "to",
          "type": "address"
        },
        {
          "internalType": "uint256",
          "name": "tokenId",
          "type": "uint256"
        },
        {
          "internalType": "bytes",
          "name": "_data",
          "type": "bytes"
        }
      ],
      "name": "safeTransferFrom",
      "outputs": [],
      "stateMutability": "nonpayable",
      "type": "function"
    },
    {
      "inputs": [
        {
          "internalType": "address",
          "name": "operator",
          "type": "address"
        },
        {
          "internalType": "bool",
          "name": "approved",
          "type": "bool"
        }
      ],
      "name": "setApprovalForAll",
      "outputs": [],
      "stateMutability": "nonpayable",
      "type": "function"
    },
    {
      "inputs": [
        {
          "internalType": "bytes4",
          "name": "interfaceId",
          "type": "bytes4"
        }
      ],
      "name": "supportsInterface",
      "outputs": [
        {
          "internalType": "bool",
          "name": "",
          "type": "bool"
        }
      ],
      "stateMutability": "view",
      "type": "function"
    },
    {
      "inputs": [],
      "name": "symbol",
      "outputs": [
        {
          "internalType": "string",
          "name": "",
          "type": "string"
        }
      ],
      "stateMutability": "view",
      "type": "function"
    },
    {
      "inputs": [
        {
          "internalType": "address",
          "name": "_owner",
          "type": "address"
        },
        {
          "internalType": "uint256",
          "name": "_idx",
          "type": "uint256"
        }
      ],
      "name": "tokenOfOwnerByIndex",
      "outputs": [
        {
          "internalType": "uint256",
          "name": "",
          "type": "uint256"
        }
      ],
      "stateMutability": "view",
      "type": "function"
    },
    {
      "inputs": [
        {
          "internalType": "uint256",
          "name": "tokenId",
          "type": "uint256"
        }
      ],
      "name": "tokenURI",
      "outputs": [
        {
          "internalType": "string",
          "name": "",
          "type": "string"
        }
      ],
      "stateMutability": "view",
      "type": "function"
    },
    {
      "inputs": [
        {
          "internalType": "address",
          "name": "_owner",
          "type": "address"
        }
      ],
      "name": "tokensOfOwner",
      "outputs": [
        {
          "internalType": "uint256[]",
          "name": "ownerTokens",
          "type": "uint256[]"
        }
      ],
      "stateMutability": "view",
      "type": "function"
    },
    {
      "inputs": [],
      "name": "totalSupply",
      "outputs": [
        {
          "internalType": "uint256",
          "name": "",
          "type": "uint256"
        }
      ],
      "stateMutability": "view",
      "type": "function"
    },
    {
      "inputs": [
        {
          "internalType": "address",
          "name": "from",
          "type": "address"
        },
        {
          "internalType": "address",
          "name": "to",
          "type": "address"
        },
        {
          "internalType": "uint256",
          "name": "tokenId",
          "type": "uint256"
        }
      ],
      "name": "transferFrom",
      "outputs": [],
      "stateMutability": "nonpayable",
      "type": "function"
    },
    {
      "inputs": [
        {
          "internalType": "address",
          "name": "newOwner",
          "type": "address"
        }
      ],
      "name": "transferOwnership",
      "outputs": [],
      "stateMutability": "nonpayable",
      "type": "function"
    }
  ],
  "bytecode": "0x60806040523480156200001157600080fd5b506040518060400160405280600681526020017f41766174617200000000000000000000000000000000000000000000000000008152506040518060400160405280600681526020017f4176617461720000000000000000000000000000000000000000000000000000815250816000908051906020019062000096929190620001a6565b508060019080519060200190620000af929190620001a6565b505050620000d2620000c6620000d860201b60201c565b620000e060201b60201c565b620002bb565b600033905090565b6000600760009054906101000a900473ffffffffffffffffffffffffffffffffffffffff16905081600760006101000a81548173ffffffffffffffffffffffffffffffffffffffff021916908373ffffffffffffffffffffffffffffffffffffffff1602179055508173ffffffffffffffffffffffffffffffffffffffff168173ffffffffffffffffffffffffffffffffffffffff167f8be0079c531659141344cd1fd0a4f28419497f9722a3daafe3b4186f6b6457e060405160405180910390a35050565b828054620001b49062000256565b90600052602060002090601f016020900481019282620001d8576000855562000224565b82601f10620001f357805160ff191683800117855562000224565b8280016001018555821562000224579182015b828111156200022357825182559160200191906001019062000206565b5b50905062000233919062000237565b5090565b5b808211156200025257600081600090555060010162000238565b5090565b600060028204905060018216806200026f57607f821691505b602082108114156200028657620002856200028c565b5b50919050565b7f4e487b7100000000000000000000000000000000000000000000000000000000600052602260045260246000fd5b61339d80620002cb6000396000f3fe608060405234801561001057600080fd5b506004361061012c5760003560e01c806370a08231116100ad578063a22cb46511610071578063a22cb46514610357578063b88d4fde14610373578063c87b56dd1461038f578063e985e9c5146103bf578063f2fde38b146103ef5761012c565b806370a08231146102b1578063715018a6146102e15780638462151c146102eb5780638da5cb5b1461031b57806395d89b41146103395761012c565b806323b872dd116100f457806323b872dd146101e95780632f745c591461020557806342842e0e1461023557806362068d60146102515780636352211e146102815761012c565b806301ffc9a71461013157806306fdde0314610161578063081812fc1461017f578063095ea7b3146101af57806318160ddd146101cb575b600080fd5b61014b6004803603810190610146919061226c565b61040b565b604051610158919061275f565b60405180910390f35b6101696104ed565b604051610176919061277a565b60405180910390f35b610199600480360381019061019491906122be565b61057f565b6040516101a691906126d6565b60405180910390f35b6101c960048036038101906101c49190612230565b610604565b005b6101d361071c565b6040516101e091906129dc565b60405180910390f35b61020360048036038101906101fe91906120d6565b61072d565b005b61021f600480360381019061021a9190612230565b61078d565b60405161022c91906129dc565b60405180910390f35b61024f600480360381019061024a91906120d6565b610795565b005b61026b600480360381019061026691906121dc565b6107b5565b60405161027891906129dc565b60405180910390f35b61029b600480360381019061029691906122be565b61083f565b6040516102a891906126d6565b60405180910390f35b6102cb60048036038101906102c69190612071565b6108f1565b6040516102d891906129dc565b60405180910390f35b6102e96109a9565b005b61030560048036038101906103009190612071565b610a31565b604051610312919061273d565b60405180910390f35b610323610c2c565b60405161033091906126d6565b60405180910390f35b610341610c56565b60405161034e919061277a565b60405180910390f35b610371600480360381019061036c91906121a0565b610ce8565b005b61038d60048036038101906103889190612125565b610e69565b005b6103a960048036038101906103a491906122be565b610ecb565b6040516103b6919061277a565b60405180910390f35b6103d960048036038101906103d4919061209a565b61101d565b6040516103e6919061275f565b60405180910390f35b61040960048036038101906104049190612071565b6110b1565b005b60007f80ac58cd000000000000000000000000000000000000000000000000000000007bffffffffffffffffffffffffffffffffffffffffffffffffffffffff1916827bffffffffffffffffffffffffffffffffffffffffffffffffffffffff191614806104d657507f5b5e139f000000000000000000000000000000000000000000000000000000007bffffffffffffffffffffffffffffffffffffffffffffffffffffffff1916827bffffffffffffffffffffffffffffffffffffffffffffffffffffffff1916145b806104e657506104e5826111a9565b5b9050919050565b6060600080546104fc90612c6b565b80601f016020809104026020016040519081016040528092919081815260200182805461052890612c6b565b80156105755780601f1061054a57610100808354040283529160200191610575565b820191906000526020600020905b81548152906001019060200180831161055857829003601f168201915b5050505050905090565b600061058a82611213565b6105c9576040517f08c379a00000000000000000000000000000000000000000000000000000000081526004016105c09061291c565b60405180910390fd5b6004600083815260200190815260200160002060009054906101000a900473ffffffffffffffffffffffffffffffffffffffff169050919050565b600061060f8261083f565b90508073ffffffffffffffffffffffffffffffffffffffff168373ffffffffffffffffffffffffffffffffffffffff161415610680576040517f08c379a00000000000000000000000000000000000000000000000000000000081526004016106779061299c565b60405180910390fd5b8073ffffffffffffffffffffffffffffffffffffffff1661069f61127f565b73ffffffffffffffffffffffffffffffffffffffff1614806106ce57506106cd816106c861127f565b61101d565b5b61070d576040517f08c379a00000000000000000000000000000000000000000000000000000000081526004016107049061285c565b60405180910390fd5b6107178383611287565b505050565b60006107286008611340565b905090565b61073e61073861127f565b8261134e565b61077d576040517f08c379a0000000000000000000000000000000000000000000000000000000008152600401610774906129bc565b60405180910390fd5b61078883838361142c565b505050565b600092915050565b6107b083838360405180602001604052806000815250610e69565b505050565b60006107c16008611688565b60006107cd6008611340565b90506107d9848261169e565b6107e381846116bc565b836009600083815260200190815260200160002060006101000a81548173ffffffffffffffffffffffffffffffffffffffff021916908373ffffffffffffffffffffffffffffffffffffffff1602179055508091505092915050565b6000806002600084815260200190815260200160002060009054906101000a900473ffffffffffffffffffffffffffffffffffffffff169050600073ffffffffffffffffffffffffffffffffffffffff168173ffffffffffffffffffffffffffffffffffffffff1614156108e8576040517f08c379a00000000000000000000000000000000000000000000000000000000081526004016108df9061289c565b60405180910390fd5b80915050919050565b60008073ffffffffffffffffffffffffffffffffffffffff168273ffffffffffffffffffffffffffffffffffffffff161415610962576040517f08c379a00000000000000000000000000000000000000000000000000000000081526004016109599061287c565b60405180910390fd5b600360008373ffffffffffffffffffffffffffffffffffffffff1673ffffffffffffffffffffffffffffffffffffffff168152602001908152602001600020549050919050565b6109b161127f565b73ffffffffffffffffffffffffffffffffffffffff166109cf610c2c565b73ffffffffffffffffffffffffffffffffffffffff1614610a25576040517f08c379a0000000000000000000000000000000000000000000000000000000008152600401610a1c9061293c565b60405180910390fd5b610a2f6000611730565b565b60606000610a3e836108f1565b90506000811415610ac157600067ffffffffffffffff811115610a8a577f4e487b7100000000000000000000000000000000000000000000000000000000600052604160045260246000fd5b604051908082528060200260200182016040528015610ab85781602001602082028036833780820191505090505b50915050610c27565b60008167ffffffffffffffff811115610b03577f4e487b7100000000000000000000000000000000000000000000000000000000600052604160045260246000fd5b604051908082528060200260200182016040528015610b315781602001602082028036833780820191505090505b5090506000610b3e61071c565b9050600080600190505b828111610c1e578673ffffffffffffffffffffffffffffffffffffffff166009600083815260200190815260200160002060009054906101000a900473ffffffffffffffffffffffffffffffffffffffff1673ffffffffffffffffffffffffffffffffffffffff161415610c0b5780848381518110610bf0577f4e487b7100000000000000000000000000000000000000000000000000000000600052603260045260246000fd5b6020026020010181815250508180610c0790612cce565b9250505b8080610c1690612cce565b915050610b48565b83955050505050505b919050565b6000600760009054906101000a900473ffffffffffffffffffffffffffffffffffffffff16905090565b606060018054610c6590612c6b565b80601f0160208091040260200160405190810160405280929190818152602001828054610c9190612c6b565b8015610cde5780601f10610cb357610100808354040283529160200191610cde565b820191906000526020600020905b815481529060010190602001808311610cc157829003601f168201915b5050505050905090565b610cf061127f565b73ffffffffffffffffffffffffffffffffffffffff168273ffffffffffffffffffffffffffffffffffffffff161415610d5e576040517f08c379a0000000000000000000000000000000000000000000000000000000008152600401610d559061281c565b60405180910390fd5b8060056000610d6b61127f565b73ffffffffffffffffffffffffffffffffffffffff1673ffffffffffffffffffffffffffffffffffffffff16815260200190815260200160002060008473ffffffffffffffffffffffffffffffffffffffff1673ffffffffffffffffffffffffffffffffffffffff16815260200190815260200160002060006101000a81548160ff0219169083151502179055508173ffffffffffffffffffffffffffffffffffffffff16610e1861127f565b73ffffffffffffffffffffffffffffffffffffffff167f17307eab39ab6107e8899845ad3d59bd9653f200f220920489ca2b5937696c3183604051610e5d919061275f565b60405180910390a35050565b610e7a610e7461127f565b8361134e565b610eb9576040517f08c379a0000000000000000000000000000000000000000000000000000000008152600401610eb0906129bc565b60405180910390fd5b610ec5848484846117f6565b50505050565b6060610ed682611213565b610f15576040517f08c379a0000000000000000000000000000000000000000000000000000000008152600401610f0c906128fc565b60405180910390fd5b6000600660008481526020019081526020016000208054610f3590612c6b565b80601f0160208091040260200160405190810160405280929190818152602001828054610f6190612c6b565b8015610fae5780601f10610f8357610100808354040283529160200191610fae565b820191906000526020600020905b815481529060010190602001808311610f9157829003601f168201915b505050505090506000610fbf611852565b9050600081511415610fd5578192505050611018565b60008251111561100a578082604051602001610ff29291906126b2565b60405160208183030381529060405292505050611018565b61101384611869565b925050505b919050565b6000600560008473ffffffffffffffffffffffffffffffffffffffff1673ffffffffffffffffffffffffffffffffffffffff16815260200190815260200160002060008373ffffffffffffffffffffffffffffffffffffffff1673ffffffffffffffffffffffffffffffffffffffff16815260200190815260200160002060009054906101000a900460ff16905092915050565b6110b961127f565b73ffffffffffffffffffffffffffffffffffffffff166110d7610c2c565b73ffffffffffffffffffffffffffffffffffffffff161461112d576040517f08c379a00000000000000000000000000000000000000000000000000000000081526004016111249061293c565b60405180910390fd5b600073ffffffffffffffffffffffffffffffffffffffff168173ffffffffffffffffffffffffffffffffffffffff16141561119d576040517f08c379a0000000000000000000000000000000000000000000000000000000008152600401611194906127bc565b60405180910390fd5b6111a681611730565b50565b60007f01ffc9a7000000000000000000000000000000000000000000000000000000007bffffffffffffffffffffffffffffffffffffffffffffffffffffffff1916827bffffffffffffffffffffffffffffffffffffffffffffffffffffffff1916149050919050565b60008073ffffffffffffffffffffffffffffffffffffffff166002600084815260200190815260200160002060009054906101000a900473ffffffffffffffffffffffffffffffffffffffff1673ffffffffffffffffffffffffffffffffffffffff1614159050919050565b600033905090565b816004600083815260200190815260200160002060006101000a81548173ffffffffffffffffffffffffffffffffffffffff021916908373ffffffffffffffffffffffffffffffffffffffff160217905550808273ffffffffffffffffffffffffffffffffffffffff166112fa8361083f565b73ffffffffffffffffffffffffffffffffffffffff167f8c5be1e5ebec7d5bd14f71427d1e84f3dd0314c0f7b2291e5b200ac8c7c3b92560405160405180910390a45050565b600081600001549050919050565b600061135982611213565b611398576040517f08c379a000000000000000000000000000000000000000000000000000000000815260040161138f9061283c565b60405180910390fd5b60006113a38361083f565b90508073ffffffffffffffffffffffffffffffffffffffff168473ffffffffffffffffffffffffffffffffffffffff16148061141257508373ffffffffffffffffffffffffffffffffffffffff166113fa8461057f565b73ffffffffffffffffffffffffffffffffffffffff16145b806114235750611422818561101d565b5b91505092915050565b8273ffffffffffffffffffffffffffffffffffffffff1661144c8261083f565b73ffffffffffffffffffffffffffffffffffffffff16146114a2576040517f08c379a00000000000000000000000000000000000000000000000000000000081526004016114999061295c565b60405180910390fd5b600073ffffffffffffffffffffffffffffffffffffffff168273ffffffffffffffffffffffffffffffffffffffff161415611512576040517f08c379a0000000000000000000000000000000000000000000000000000000008152600401611509906127fc565b60405180910390fd5b61151d838383611910565b611528600082611287565b6001600360008573ffffffffffffffffffffffffffffffffffffffff1673ffffffffffffffffffffffffffffffffffffffff16815260200190815260200160002060008282546115789190612b81565b925050819055506001600360008473ffffffffffffffffffffffffffffffffffffffff1673ffffffffffffffffffffffffffffffffffffffff16815260200190815260200160002060008282546115cf9190612afa565b92505081905550816002600083815260200190815260200160002060006101000a81548173ffffffffffffffffffffffffffffffffffffffff021916908373ffffffffffffffffffffffffffffffffffffffff160217905550808273ffffffffffffffffffffffffffffffffffffffff168473ffffffffffffffffffffffffffffffffffffffff167fddf252ad1be2c89b69c2b068fc378daa952ba7f163c4a11628f55a4df523b3ef60405160405180910390a4505050565b6001816000016000828254019250508190555050565b6116b8828260405180602001604052806000815250611915565b5050565b6116c582611213565b611704576040517f08c379a00000000000000000000000000000000000000000000000000000000081526004016116fb906128bc565b60405180910390fd5b8060066000848152602001908152602001600020908051906020019061172b929190611e95565b505050565b6000600760009054906101000a900473ffffffffffffffffffffffffffffffffffffffff16905081600760006101000a81548173ffffffffffffffffffffffffffffffffffffffff021916908373ffffffffffffffffffffffffffffffffffffffff1602179055508173ffffffffffffffffffffffffffffffffffffffff168173ffffffffffffffffffffffffffffffffffffffff167f8be0079c531659141344cd1fd0a4f28419497f9722a3daafe3b4186f6b6457e060405160405180910390a35050565b61180184848461142c565b61180d84848484611970565b61184c576040517f08c379a00000000000000000000000000000000000000000000000000000000081526004016118439061279c565b60405180910390fd5b50505050565b606060405180602001604052806000815250905090565b606061187482611213565b6118b3576040517f08c379a00000000000000000000000000000000000000000000000000000000081526004016118aa9061297c565b60405180910390fd5b60006118bd611852565b905060008151116118dd5760405180602001604052806000815250611908565b806118e784611b07565b6040516020016118f89291906126b2565b6040516020818303038152906040525b915050919050565b505050565b61191f8383611cb4565b61192c6000848484611970565b61196b576040517f08c379a00000000000000000000000000000000000000000000000000000000081526004016119629061279c565b60405180910390fd5b505050565b60006119918473ffffffffffffffffffffffffffffffffffffffff16611e82565b15611afa578373ffffffffffffffffffffffffffffffffffffffff1663150b7a026119ba61127f565b8786866040518563ffffffff1660e01b81526004016119dc94939291906126f1565b602060405180830381600087803b1580156119f657600080fd5b505af1925050508015611a2757506040513d601f19601f82011682018060405250810190611a249190612295565b60015b611aaa573d8060008114611a57576040519150601f19603f3d011682016040523d82523d6000602084013e611a5c565b606091505b50600081511415611aa2576040517f08c379a0000000000000000000000000000000000000000000000000000000008152600401611a999061279c565b60405180910390fd5b805181602001fd5b63150b7a0260e01b7bffffffffffffffffffffffffffffffffffffffffffffffffffffffff1916817bffffffffffffffffffffffffffffffffffffffffffffffffffffffff191614915050611aff565b600190505b949350505050565b60606000821415611b4f576040518060400160405280600181526020017f30000000000000000000000000000000000000000000000000000000000000008152509050611caf565b600082905060005b60008214611b81578080611b6a90612cce565b915050600a82611b7a9190612b50565b9150611b57565b60008167ffffffffffffffff811115611bc3577f4e487b7100000000000000000000000000000000000000000000000000000000600052604160045260246000fd5b6040519080825280601f01601f191660200182016040528015611bf55781602001600182028036833780820191505090505b5090505b60008514611ca857600182611c0e9190612b81565b9150600a85611c1d9190612d17565b6030611c299190612afa565b60f81b818381518110611c65577f4e487b7100000000000000000000000000000000000000000000000000000000600052603260045260246000fd5b60200101907effffffffffffffffffffffffffffffffffffffffffffffffffffffffffffff1916908160001a905350600a85611ca19190612b50565b9450611bf9565b8093505050505b919050565b600073ffffffffffffffffffffffffffffffffffffffff168273ffffffffffffffffffffffffffffffffffffffff161415611d24576040517f08c379a0000000000000000000000000000000000000000000000000000000008152600401611d1b906128dc565b60405180910390fd5b611d2d81611213565b15611d6d576040517f08c379a0000000000000000000000000000000000000000000000000000000008152600401611d64906127dc565b60405180910390fd5b611d7960008383611910565b6001600360008473ffffffffffffffffffffffffffffffffffffffff1673ffffffffffffffffffffffffffffffffffffffff1681526020019081526020016000206000828254611dc99190612afa565b92505081905550816002600083815260200190815260200160002060006101000a81548173ffffffffffffffffffffffffffffffffffffffff021916908373ffffffffffffffffffffffffffffffffffffffff160217905550808273ffffffffffffffffffffffffffffffffffffffff16600073ffffffffffffffffffffffffffffffffffffffff167fddf252ad1be2c89b69c2b068fc378daa952ba7f163c4a11628f55a4df523b3ef60405160405180910390a45050565b600080823b905060008111915050919050565b828054611ea190612c6b565b90600052602060002090601f016020900481019282611ec35760008555611f0a565b82601f10611edc57805160ff1916838001178555611f0a565b82800160010185558215611f0a579182015b82811115611f09578251825591602001919060010190611eee565b5b509050611f179190611f1b565b5090565b5b80821115611f34576000816000905550600101611f1c565b5090565b6000611f4b611f4684612a1c565b6129f7565b905082815260208101848484011115611f6357600080fd5b611f6e848285612c29565b509392505050565b6000611f89611f8484612a4d565b6129f7565b905082815260208101848484011115611fa157600080fd5b611fac848285612c29565b509392505050565b600081359050611fc38161330b565b92915050565b600081359050611fd881613322565b92915050565b600081359050611fed81613339565b92915050565b60008151905061200281613339565b92915050565b600082601f83011261201957600080fd5b8135612029848260208601611f38565b91505092915050565b600082601f83011261204357600080fd5b8135612053848260208601611f76565b91505092915050565b60008135905061206b81613350565b92915050565b60006020828403121561208357600080fd5b600061209184828501611fb4565b91505092915050565b600080604083850312156120ad57600080fd5b60006120bb85828601611fb4565b92505060206120cc85828601611fb4565b9150509250929050565b6000806000606084860312156120eb57600080fd5b60006120f986828701611fb4565b935050602061210a86828701611fb4565b925050604061211b8682870161205c565b9150509250925092565b6000806000806080858703121561213b57600080fd5b600061214987828801611fb4565b945050602061215a87828801611fb4565b935050604061216b8782880161205c565b925050606085013567ffffffffffffffff81111561218857600080fd5b61219487828801612008565b91505092959194509250565b600080604083850312156121b357600080fd5b60006121c185828601611fb4565b92505060206121d285828601611fc9565b9150509250929050565b600080604083850312156121ef57600080fd5b60006121fd85828601611fb4565b925050602083013567ffffffffffffffff81111561221a57600080fd5b61222685828601612032565b9150509250929050565b6000806040838503121561224357600080fd5b600061225185828601611fb4565b92505060206122628582860161205c565b9150509250929050565b60006020828403121561227e57600080fd5b600061228c84828501611fde565b91505092915050565b6000602082840312156122a757600080fd5b60006122b584828501611ff3565b91505092915050565b6000602082840312156122d057600080fd5b60006122de8482850161205c565b91505092915050565b60006122f38383612694565b60208301905092915050565b61230881612bb5565b82525050565b600061231982612a8e565b6123238185612abc565b935061232e83612a7e565b8060005b8381101561235f57815161234688826122e7565b975061235183612aaf565b925050600181019050612332565b5085935050505092915050565b61237581612bc7565b82525050565b600061238682612a99565b6123908185612acd565b93506123a0818560208601612c38565b6123a981612e04565b840191505092915050565b60006123bf82612aa4565b6123c98185612ade565b93506123d9818560208601612c38565b6123e281612e04565b840191505092915050565b60006123f882612aa4565b6124028185612aef565b9350612412818560208601612c38565b80840191505092915050565b600061242b603283612ade565b915061243682612e15565b604082019050919050565b600061244e602683612ade565b915061245982612e64565b604082019050919050565b6000612471601c83612ade565b915061247c82612eb3565b602082019050919050565b6000612494602483612ade565b915061249f82612edc565b604082019050919050565b60006124b7601983612ade565b91506124c282612f2b565b602082019050919050565b60006124da602c83612ade565b91506124e582612f54565b604082019050919050565b60006124fd603883612ade565b915061250882612fa3565b604082019050919050565b6000612520602a83612ade565b915061252b82612ff2565b604082019050919050565b6000612543602983612ade565b915061254e82613041565b604082019050919050565b6000612566602e83612ade565b915061257182613090565b604082019050919050565b6000612589602083612ade565b9150612594826130df565b602082019050919050565b60006125ac603183612ade565b91506125b782613108565b604082019050919050565b60006125cf602c83612ade565b91506125da82613157565b604082019050919050565b60006125f2602083612ade565b91506125fd826131a6565b602082019050919050565b6000612615602983612ade565b9150612620826131cf565b604082019050919050565b6000612638602f83612ade565b91506126438261321e565b604082019050919050565b600061265b602183612ade565b91506126668261326d565b604082019050919050565b600061267e603183612ade565b9150612689826132bc565b604082019050919050565b61269d81612c1f565b82525050565b6126ac81612c1f565b82525050565b60006126be82856123ed565b91506126ca82846123ed565b91508190509392505050565b60006020820190506126eb60008301846122ff565b92915050565b600060808201905061270660008301876122ff565b61271360208301866122ff565b61272060408301856126a3565b8181036060830152612732818461237b565b905095945050505050565b60006020820190508181036000830152612757818461230e565b905092915050565b6000602082019050612774600083018461236c565b92915050565b6000602082019050818103600083015261279481846123b4565b905092915050565b600060208201905081810360008301526127b58161241e565b9050919050565b600060208201905081810360008301526127d581612441565b9050919050565b600060208201905081810360008301526127f581612464565b9050919050565b6000602082019050818103600083015261281581612487565b9050919050565b60006020820190508181036000830152612835816124aa565b9050919050565b60006020820190508181036000830152612855816124cd565b9050919050565b60006020820190508181036000830152612875816124f0565b9050919050565b6000602082019050818103600083015261289581612513565b9050919050565b600060208201905081810360008301526128b581612536565b9050919050565b600060208201905081810360008301526128d581612559565b9050919050565b600060208201905081810360008301526128f58161257c565b9050919050565b600060208201905081810360008301526129158161259f565b9050919050565b60006020820190508181036000830152612935816125c2565b9050919050565b60006020820190508181036000830152612955816125e5565b9050919050565b6000602082019050818103600083015261297581612608565b9050919050565b600060208201905081810360008301526129958161262b565b9050919050565b600060208201905081810360008301526129b58161264e565b9050919050565b600060208201905081810360008301526129d581612671565b9050919050565b60006020820190506129f160008301846126a3565b92915050565b6000612a01612a12565b9050612a0d8282612c9d565b919050565b6000604051905090565b600067ffffffffffffffff821115612a3757612a36612dd5565b5b612a4082612e04565b9050602081019050919050565b600067ffffffffffffffff821115612a6857612a67612dd5565b5b612a7182612e04565b9050602081019050919050565b6000819050602082019050919050565b600081519050919050565b600081519050919050565b600081519050919050565b6000602082019050919050565b600082825260208201905092915050565b600082825260208201905092915050565b600082825260208201905092915050565b600081905092915050565b6000612b0582612c1f565b9150612b1083612c1f565b9250827fffffffffffffffffffffffffffffffffffffffffffffffffffffffffffffffff03821115612b4557612b44612d48565b5b828201905092915050565b6000612b5b82612c1f565b9150612b6683612c1f565b925082612b7657612b75612d77565b5b828204905092915050565b6000612b8c82612c1f565b9150612b9783612c1f565b925082821015612baa57612ba9612d48565b5b828203905092915050565b6000612bc082612bff565b9050919050565b60008115159050919050565b60007fffffffff0000000000000000000000000000000000000000000000000000000082169050919050565b600073ffffffffffffffffffffffffffffffffffffffff82169050919050565b6000819050919050565b82818337600083830152505050565b60005b83811015612c56578082015181840152602081019050612c3b565b83811115612c65576000848401525b50505050565b60006002820490506001821680612c8357607f821691505b60208210811415612c9757612c96612da6565b5b50919050565b612ca682612e04565b810181811067ffffffffffffffff82111715612cc557612cc4612dd5565b5b80604052505050565b6000612cd982612c1f565b91507fffffffffffffffffffffffffffffffffffffffffffffffffffffffffffffffff821415612d0c57612d0b612d48565b5b600182019050919050565b6000612d2282612c1f565b9150612d2d83612c1f565b925082612d3d57612d3c612d77565b5b828206905092915050565b7f4e487b7100000000000000000000000000000000000000000000000000000000600052601160045260246000fd5b7f4e487b7100000000000000000000000000000000000000000000000000000000600052601260045260246000fd5b7f4e487b7100000000000000000000000000000000000000000000000000000000600052602260045260246000fd5b7f4e487b7100000000000000000000000000000000000000000000000000000000600052604160045260246000fd5b6000601f19601f8301169050919050565b7f4552433732313a207472616e7366657220746f206e6f6e20455243373231526560008201527f63656976657220696d706c656d656e7465720000000000000000000000000000602082015250565b7f4f776e61626c653a206e6577206f776e657220697320746865207a65726f206160008201527f6464726573730000000000000000000000000000000000000000000000000000602082015250565b7f4552433732313a20746f6b656e20616c7265616479206d696e74656400000000600082015250565b7f4552433732313a207472616e7366657220746f20746865207a65726f2061646460008201527f7265737300000000000000000000000000000000000000000000000000000000602082015250565b7f4552433732313a20617070726f766520746f2063616c6c657200000000000000600082015250565b7f4552433732313a206f70657261746f7220717565727920666f72206e6f6e657860008201527f697374656e7420746f6b656e0000000000000000000000000000000000000000602082015250565b7f4552433732313a20617070726f76652063616c6c6572206973206e6f74206f7760008201527f6e6572206e6f7220617070726f76656420666f7220616c6c0000000000000000602082015250565b7f4552433732313a2062616c616e636520717565727920666f7220746865207a6560008201527f726f206164647265737300000000000000000000000000000000000000000000602082015250565b7f4552433732313a206f776e657220717565727920666f72206e6f6e657869737460008201527f656e7420746f6b656e0000000000000000000000000000000000000000000000602082015250565b7f45524337323155524953746f726167653a2055524920736574206f66206e6f6e60008201527f6578697374656e7420746f6b656e000000000000000000000000000000000000602082015250565b7f4552433732313a206d696e7420746f20746865207a65726f2061646472657373600082015250565b7f45524337323155524953746f726167653a2055524920717565727920666f722060008201527f6e6f6e6578697374656e7420746f6b656e000000000000000000000000000000602082015250565b7f4552433732313a20617070726f76656420717565727920666f72206e6f6e657860008201527f697374656e7420746f6b656e0000000000000000000000000000000000000000602082015250565b7f4f776e61626c653a2063616c6c6572206973206e6f7420746865206f776e6572600082015250565b7f4552433732313a207472616e73666572206f6620746f6b656e2074686174206960008201527f73206e6f74206f776e0000000000000000000000000000000000000000000000602082015250565b7f4552433732314d657461646174613a2055524920717565727920666f72206e6f60008201527f6e6578697374656e7420746f6b656e0000000000000000000000000000000000602082015250565b7f4552433732313a20617070726f76616c20746f2063757272656e74206f776e6560008201527f7200000000000000000000000000000000000000000000000000000000000000602082015250565b7f4552433732313a207472616e736665722063616c6c6572206973206e6f74206f60008201527f776e6572206e6f7220617070726f766564000000000000000000000000000000602082015250565b61331481612bb5565b811461331f57600080fd5b50565b61332b81612bc7565b811461333657600080fd5b50565b61334281612bd3565b811461334d57600080fd5b50565b61335981612c1f565b811461336457600080fd5b5056fea26469706673582212202430519e3482060690242ae9e9514b4ba856d846cf0e553715991f0c78c2c16a64736f6c63430008040033",
  "linkReferences": {},
  "deployedLinkReferences": {}
}